{
	"NNSENSReverseResolver/contracts/utils/NNSENSReverseResolver.sol": {
		"NNSENSReverseResolver": {
			"abi": [
				{
					"inputs": [
						{
							"internalType": "address",
							"name": "_nns",
							"type": "address"
						},
						{
							"internalType": "address",
							"name": "_ens",
							"type": "address"
						}
					],
					"stateMutability": "nonpayable",
					"type": "constructor"
				},
				{
					"inputs": [],
					"name": "ens",
					"outputs": [
						{
							"internalType": "contract ENS",
							"name": "",
							"type": "address"
						}
					],
					"stateMutability": "view",
					"type": "function"
				},
				{
					"inputs": [],
					"name": "nns",
					"outputs": [
						{
							"internalType": "contract ENS",
							"name": "",
							"type": "address"
						}
					],
					"stateMutability": "view",
					"type": "function"
				},
				{
					"inputs": [
						{
							"internalType": "address",
							"name": "addr",
							"type": "address"
						}
					],
					"name": "resolve",
					"outputs": [
						{
							"internalType": "string",
							"name": "",
							"type": "string"
						}
					],
					"stateMutability": "view",
					"type": "function"
				}
			],
			"devdoc": {
				"kind": "dev",
				"methods": {},
				"version": 1
			},
			"evm": {
				"assembly": "    /* \"NNSENSReverseResolver/contracts/utils/NNSENSReverseResolver.sol\":269:2608  contract NNSENSReverseResolver {... */\n  mstore(0x40, 0xc0)\n    /* \"NNSENSReverseResolver/contracts/utils/NNSENSReverseResolver.sol\":628:715  constructor(address _nns, address _ens) {... */\n  callvalue\n  dup1\n  iszero\n  tag_1\n  jumpi\n  0x00\n  dup1\n  revert\ntag_1:\n  pop\n  mload(0x40)\n  sub(codesize, bytecodeSize)\n  dup1\n  bytecodeSize\n  dup4\n  codecopy\n  dup2\n  dup2\n  add\n  0x40\n  mstore\n  dup2\n  add\n  swap1\n  tag_2\n  swap2\n  swap1\n  tag_3\n  jump\t// in\ntag_2:\n    /* \"NNSENSReverseResolver/contracts/utils/NNSENSReverseResolver.sol\":684:688  _nns */\n  dup2\n    /* \"NNSENSReverseResolver/contracts/utils/NNSENSReverseResolver.sol\":674:689  nns = ENS(_nns) */\n  0xffffffffffffffffffffffffffffffffffffffff\n  and\n  0xa0\n  dup2\n  0xffffffffffffffffffffffffffffffffffffffff\n  and\n  dup2\n  mstore\n  pop\n  pop\n    /* \"NNSENSReverseResolver/contracts/utils/NNSENSReverseResolver.sol\":705:709  _ens */\n  dup1\n    /* \"NNSENSReverseResolver/contracts/utils/NNSENSReverseResolver.sol\":695:710  ens = ENS(_ens) */\n  0xffffffffffffffffffffffffffffffffffffffff\n  and\n  0x80\n  dup2\n  0xffffffffffffffffffffffffffffffffffffffff\n  and\n  dup2\n  mstore\n  pop\n  pop\n    /* \"NNSENSReverseResolver/contracts/utils/NNSENSReverseResolver.sol\":628:715  constructor(address _nns, address _ens) {... */\n  pop\n  pop\n    /* \"NNSENSReverseResolver/contracts/utils/NNSENSReverseResolver.sol\":269:2608  contract NNSENSReverseResolver {... */\n  jump(tag_6)\n    /* \"#utility.yul\":88:205   */\ntag_8:\n    /* \"#utility.yul\":197:198   */\n  0x00\n    /* \"#utility.yul\":194:195   */\n  dup1\n    /* \"#utility.yul\":187:199   */\n  revert\n    /* \"#utility.yul\":334:460   */\ntag_10:\n    /* \"#utility.yul\":371:378   */\n  0x00\n    /* \"#utility.yul\":411:453   */\n  0xffffffffffffffffffffffffffffffffffffffff\n    /* \"#utility.yul\":404:409   */\n  dup3\n    /* \"#utility.yul\":400:454   */\n  and\n    /* \"#utility.yul\":389:454   */\n  swap1\n  pop\n    /* \"#utility.yul\":334:460   */\n  swap2\n  swap1\n  pop\n  jump\t// out\n    /* \"#utility.yul\":466:562   */\ntag_11:\n    /* \"#utility.yul\":503:510   */\n  0x00\n    /* \"#utility.yul\":532:556   */\n  tag_20\n    /* \"#utility.yul\":550:555   */\n  dup3\n    /* \"#utility.yul\":532:556   */\n  tag_10\n  jump\t// in\ntag_20:\n    /* \"#utility.yul\":521:556   */\n  swap1\n  pop\n    /* \"#utility.yul\":466:562   */\n  swap2\n  swap1\n  pop\n  jump\t// out\n    /* \"#utility.yul\":568:690   */\ntag_12:\n    /* \"#utility.yul\":641:665   */\n  tag_22\n    /* \"#utility.yul\":659:664   */\n  dup2\n    /* \"#utility.yul\":641:665   */\n  tag_11\n  jump\t// in\ntag_22:\n    /* \"#utility.yul\":634:639   */\n  dup2\n    /* \"#utility.yul\":631:666   */\n  eq\n    /* \"#utility.yul\":621:684   */\n  tag_23\n  jumpi\n    /* \"#utility.yul\":680:681   */\n  0x00\n    /* \"#utility.yul\":677:678   */\n  dup1\n    /* \"#utility.yul\":670:682   */\n  revert\n    /* \"#utility.yul\":621:684   */\ntag_23:\n    /* \"#utility.yul\":568:690   */\n  pop\n  jump\t// out\n    /* \"#utility.yul\":696:839   */\ntag_13:\n    /* \"#utility.yul\":753:758   */\n  0x00\n    /* \"#utility.yul\":784:790   */\n  dup2\n    /* \"#utility.yul\":778:791   */\n  mload\n    /* \"#utility.yul\":769:791   */\n  swap1\n  pop\n    /* \"#utility.yul\":800:833   */\n  tag_25\n    /* \"#utility.yul\":827:832   */\n  dup2\n    /* \"#utility.yul\":800:833   */\n  tag_12\n  jump\t// in\ntag_25:\n    /* \"#utility.yul\":696:839   */\n  swap3\n  swap2\n  pop\n  pop\n  jump\t// out\n    /* \"#utility.yul\":845:1352   */\ntag_3:\n    /* \"#utility.yul\":924:930   */\n  0x00\n    /* \"#utility.yul\":932:938   */\n  dup1\n    /* \"#utility.yul\":981:983   */\n  0x40\n    /* \"#utility.yul\":969:978   */\n  dup4\n    /* \"#utility.yul\":960:967   */\n  dup6\n    /* \"#utility.yul\":956:979   */\n  sub\n    /* \"#utility.yul\":952:984   */\n  slt\n    /* \"#utility.yul\":949:1068   */\n  iszero\n  tag_27\n  jumpi\n    /* \"#utility.yul\":987:1066   */\n  tag_28\n  tag_8\n  jump\t// in\ntag_28:\n    /* \"#utility.yul\":949:1068   */\ntag_27:\n    /* \"#utility.yul\":1107:1108   */\n  0x00\n    /* \"#utility.yul\":1132:1196   */\n  tag_29\n    /* \"#utility.yul\":1188:1195   */\n  dup6\n    /* \"#utility.yul\":1179:1185   */\n  dup3\n    /* \"#utility.yul\":1168:1177   */\n  dup7\n    /* \"#utility.yul\":1164:1186   */\n  add\n    /* \"#utility.yul\":1132:1196   */\n  tag_13\n  jump\t// in\ntag_29:\n    /* \"#utility.yul\":1122:1196   */\n  swap3\n  pop\n    /* \"#utility.yul\":1078:1206   */\n  pop\n    /* \"#utility.yul\":1245:1247   */\n  0x20\n    /* \"#utility.yul\":1271:1335   */\n  tag_30\n    /* \"#utility.yul\":1327:1334   */\n  dup6\n    /* \"#utility.yul\":1318:1324   */\n  dup3\n    /* \"#utility.yul\":1307:1316   */\n  dup7\n    /* \"#utility.yul\":1303:1325   */\n  add\n    /* \"#utility.yul\":1271:1335   */\n  tag_13\n  jump\t// in\ntag_30:\n    /* \"#utility.yul\":1261:1335   */\n  swap2\n  pop\n    /* \"#utility.yul\":1216:1345   */\n  pop\n    /* \"#utility.yul\":845:1352   */\n  swap3\n  pop\n  swap3\n  swap1\n  pop\n  jump\t// out\n    /* \"NNSENSReverseResolver/contracts/utils/NNSENSReverseResolver.sol\":269:2608  contract NNSENSReverseResolver {... */\ntag_6:\n  mload(0x80)\n  mload(0xa0)\n  codecopy(0x00, dataOffset(sub_0), dataSize(sub_0))\n  0x00\n  assignImmutable(\"0x5715d4ea092500b0d453c59f592af8be4f75f952db5ab3f9652ab4a5e64d2f00\")\n  0x00\n  assignImmutable(\"0xf6cb0138da7c8b3468e7e4d8ba389a3263d4efb90e59a6ce914e87b867b16a00\")\n  return(0x00, dataSize(sub_0))\nstop\n\nsub_0: assembly {\n        /* \"NNSENSReverseResolver/contracts/utils/NNSENSReverseResolver.sol\":269:2608  contract NNSENSReverseResolver {... */\n      mstore(0x40, 0x80)\n      callvalue\n      dup1\n      iszero\n      tag_1\n      jumpi\n      0x00\n      dup1\n      revert\n    tag_1:\n      pop\n      jumpi(tag_2, lt(calldatasize, 0x04))\n      shr(0xe0, calldataload(0x00))\n      dup1\n      0x3f15457f\n      eq\n      tag_3\n      jumpi\n      dup1\n      0x55ea6c47\n      eq\n      tag_4\n      jumpi\n      dup1\n      0xc358133b\n      eq\n      tag_5\n      jumpi\n    tag_2:\n      0x00\n      dup1\n      revert\n        /* \"NNSENSReverseResolver/contracts/utils/NNSENSReverseResolver.sol\":571:595  ENS public immutable ens */\n    tag_3:\n      tag_6\n      tag_7\n      jump\t// in\n    tag_6:\n      mload(0x40)\n      tag_8\n      swap2\n      swap1\n      tag_9\n      jump\t// in\n    tag_8:\n      mload(0x40)\n      dup1\n      swap2\n      sub\n      swap1\n      return\n        /* \"NNSENSReverseResolver/contracts/utils/NNSENSReverseResolver.sol\":719:959  function resolve(address addr) public view returns (string memory) {... */\n    tag_4:\n      tag_10\n      0x04\n      dup1\n      calldatasize\n      sub\n      dup2\n      add\n      swap1\n      tag_11\n      swap2\n      swap1\n      tag_12\n      jump\t// in\n    tag_11:\n      tag_13\n      jump\t// in\n    tag_10:\n      mload(0x40)\n      tag_14\n      swap2\n      swap1\n      tag_15\n      jump\t// in\n    tag_14:\n      mload(0x40)\n      dup1\n      swap2\n      sub\n      swap1\n      return\n        /* \"NNSENSReverseResolver/contracts/utils/NNSENSReverseResolver.sol\":599:623  ENS public immutable nns */\n    tag_5:\n      tag_16\n      tag_17\n      jump\t// in\n    tag_16:\n      mload(0x40)\n      tag_18\n      swap2\n      swap1\n      tag_9\n      jump\t// in\n    tag_18:\n      mload(0x40)\n      dup1\n      swap2\n      sub\n      swap1\n      return\n        /* \"NNSENSReverseResolver/contracts/utils/NNSENSReverseResolver.sol\":571:595  ENS public immutable ens */\n    tag_7:\n      immutable(\"0xf6cb0138da7c8b3468e7e4d8ba389a3263d4efb90e59a6ce914e87b867b16a00\")\n      dup2\n      jump\t// out\n        /* \"NNSENSReverseResolver/contracts/utils/NNSENSReverseResolver.sol\":719:959  function resolve(address addr) public view returns (string memory) {... */\n    tag_13:\n        /* \"NNSENSReverseResolver/contracts/utils/NNSENSReverseResolver.sol\":771:784  string memory */\n      0x60\n        /* \"NNSENSReverseResolver/contracts/utils/NNSENSReverseResolver.sol\":792:810  string memory name */\n      0x00\n        /* \"NNSENSReverseResolver/contracts/utils/NNSENSReverseResolver.sol\":813:832  _resolve(addr, nns) */\n      tag_20\n        /* \"NNSENSReverseResolver/contracts/utils/NNSENSReverseResolver.sol\":822:826  addr */\n      dup4\n        /* \"NNSENSReverseResolver/contracts/utils/NNSENSReverseResolver.sol\":828:831  nns */\n      immutable(\"0x5715d4ea092500b0d453c59f592af8be4f75f952db5ab3f9652ab4a5e64d2f00\")\n        /* \"NNSENSReverseResolver/contracts/utils/NNSENSReverseResolver.sol\":813:821  _resolve */\n      tag_21\n        /* \"NNSENSReverseResolver/contracts/utils/NNSENSReverseResolver.sol\":813:832  _resolve(addr, nns) */\n      jump\t// in\n    tag_20:\n        /* \"NNSENSReverseResolver/contracts/utils/NNSENSReverseResolver.sol\":792:832  string memory name = _resolve(addr, nns) */\n      swap1\n      pop\n        /* \"NNSENSReverseResolver/contracts/utils/NNSENSReverseResolver.sol\":864:865  0 */\n      0x00\n        /* \"NNSENSReverseResolver/contracts/utils/NNSENSReverseResolver.sol\":848:852  name */\n      dup2\n        /* \"NNSENSReverseResolver/contracts/utils/NNSENSReverseResolver.sol\":842:860  bytes(name).length */\n      mload\n        /* \"NNSENSReverseResolver/contracts/utils/NNSENSReverseResolver.sol\":842:865  bytes(name).length == 0 */\n      eq\n        /* \"NNSENSReverseResolver/contracts/utils/NNSENSReverseResolver.sol\":842:895  bytes(name).length == 0 && address(ens) != address(0) */\n      dup1\n      iszero\n      tag_22\n      jumpi\n      pop\n        /* \"NNSENSReverseResolver/contracts/utils/NNSENSReverseResolver.sol\":893:894  0 */\n      0x00\n        /* \"NNSENSReverseResolver/contracts/utils/NNSENSReverseResolver.sol\":869:895  address(ens) != address(0) */\n      0xffffffffffffffffffffffffffffffffffffffff\n      and\n        /* \"NNSENSReverseResolver/contracts/utils/NNSENSReverseResolver.sol\":877:880  ens */\n      immutable(\"0xf6cb0138da7c8b3468e7e4d8ba389a3263d4efb90e59a6ce914e87b867b16a00\")\n        /* \"NNSENSReverseResolver/contracts/utils/NNSENSReverseResolver.sol\":869:895  address(ens) != address(0) */\n      0xffffffffffffffffffffffffffffffffffffffff\n      and\n      eq\n      iszero\n        /* \"NNSENSReverseResolver/contracts/utils/NNSENSReverseResolver.sol\":842:895  bytes(name).length == 0 && address(ens) != address(0) */\n    tag_22:\n        /* \"NNSENSReverseResolver/contracts/utils/NNSENSReverseResolver.sol\":838:938  if (bytes(name).length == 0 && address(ens) != address(0)) {... */\n      iszero\n      tag_23\n      jumpi\n        /* \"NNSENSReverseResolver/contracts/utils/NNSENSReverseResolver.sol\":912:931  _resolve(addr, ens) */\n      tag_24\n        /* \"NNSENSReverseResolver/contracts/utils/NNSENSReverseResolver.sol\":921:925  addr */\n      dup4\n        /* \"NNSENSReverseResolver/contracts/utils/NNSENSReverseResolver.sol\":927:930  ens */\n      immutable(\"0xf6cb0138da7c8b3468e7e4d8ba389a3263d4efb90e59a6ce914e87b867b16a00\")\n        /* \"NNSENSReverseResolver/contracts/utils/NNSENSReverseResolver.sol\":912:920  _resolve */\n      tag_21\n        /* \"NNSENSReverseResolver/contracts/utils/NNSENSReverseResolver.sol\":912:931  _resolve(addr, ens) */\n      jump\t// in\n    tag_24:\n        /* \"NNSENSReverseResolver/contracts/utils/NNSENSReverseResolver.sol\":905:931  return _resolve(addr, ens) */\n      swap2\n      pop\n      pop\n      jump(tag_19)\n        /* \"NNSENSReverseResolver/contracts/utils/NNSENSReverseResolver.sol\":838:938  if (bytes(name).length == 0 && address(ens) != address(0)) {... */\n    tag_23:\n        /* \"NNSENSReverseResolver/contracts/utils/NNSENSReverseResolver.sol\":950:954  name */\n      dup1\n        /* \"NNSENSReverseResolver/contracts/utils/NNSENSReverseResolver.sol\":943:954  return name */\n      swap2\n      pop\n      pop\n        /* \"NNSENSReverseResolver/contracts/utils/NNSENSReverseResolver.sol\":719:959  function resolve(address addr) public view returns (string memory) {... */\n    tag_19:\n      swap2\n      swap1\n      pop\n      jump\t// out\n        /* \"NNSENSReverseResolver/contracts/utils/NNSENSReverseResolver.sol\":599:623  ENS public immutable nns */\n    tag_17:\n      immutable(\"0x5715d4ea092500b0d453c59f592af8be4f75f952db5ab3f9652ab4a5e64d2f00\")\n      dup2\n      jump\t// out\n        /* \"NNSENSReverseResolver/contracts/utils/NNSENSReverseResolver.sol\":963:1871  function _resolve(address addr, ENS registry)... */\n    tag_21:\n        /* \"NNSENSReverseResolver/contracts/utils/NNSENSReverseResolver.sol\":1043:1056  string memory */\n      0x60\n        /* \"NNSENSReverseResolver/contracts/utils/NNSENSReverseResolver.sol\":1095:1104  bytes32 n */\n      0x00\n        /* \"NNSENSReverseResolver/contracts/utils/NNSENSReverseResolver.sol\":1107:1128  reverseAddrNode(addr) */\n      tag_26\n        /* \"NNSENSReverseResolver/contracts/utils/NNSENSReverseResolver.sol\":1123:1127  addr */\n      dup5\n        /* \"NNSENSReverseResolver/contracts/utils/NNSENSReverseResolver.sol\":1107:1122  reverseAddrNode */\n      tag_27\n        /* \"NNSENSReverseResolver/contracts/utils/NNSENSReverseResolver.sol\":1107:1128  reverseAddrNode(addr) */\n      jump\t// in\n    tag_26:\n        /* \"NNSENSReverseResolver/contracts/utils/NNSENSReverseResolver.sol\":1095:1128  bytes32 n = reverseAddrNode(addr) */\n      swap1\n      pop\n        /* \"NNSENSReverseResolver/contracts/utils/NNSENSReverseResolver.sol\":1134:1157  address resolverAddress */\n      0x00\n        /* \"NNSENSReverseResolver/contracts/utils/NNSENSReverseResolver.sol\":1160:1168  registry */\n      dup4\n        /* \"NNSENSReverseResolver/contracts/utils/NNSENSReverseResolver.sol\":1160:1177  registry.resolver */\n      0xffffffffffffffffffffffffffffffffffffffff\n      and\n      0x0178b8bf\n        /* \"NNSENSReverseResolver/contracts/utils/NNSENSReverseResolver.sol\":1178:1179  n */\n      dup4\n        /* \"NNSENSReverseResolver/contracts/utils/NNSENSReverseResolver.sol\":1160:1180  registry.resolver(n) */\n      mload(0x40)\n      dup3\n      0xffffffff\n      and\n      0xe0\n      shl\n      dup2\n      mstore\n      0x04\n      add\n      tag_28\n      swap2\n      swap1\n      tag_29\n      jump\t// in\n    tag_28:\n      0x20\n      mload(0x40)\n      dup1\n      dup4\n      sub\n      dup2\n      dup7\n      gas\n      staticcall\n      iszero\n      dup1\n      iszero\n      tag_31\n      jumpi\n      returndatasize\n      0x00\n      dup1\n      returndatacopy\n      revert(0x00, returndatasize)\n    tag_31:\n      pop\n      pop\n      pop\n      pop\n      mload(0x40)\n      returndatasize\n      not(0x1f)\n      0x1f\n      dup3\n      add\n      and\n      dup3\n      add\n      dup1\n      0x40\n      mstore\n      pop\n      dup2\n      add\n      swap1\n      tag_32\n      swap2\n      swap1\n      tag_33\n      jump\t// in\n    tag_32:\n        /* \"NNSENSReverseResolver/contracts/utils/NNSENSReverseResolver.sol\":1134:1180  address resolverAddress = registry.resolver(n) */\n      swap1\n      pop\n        /* \"NNSENSReverseResolver/contracts/utils/NNSENSReverseResolver.sol\":1217:1218  0 */\n      0x00\n        /* \"NNSENSReverseResolver/contracts/utils/NNSENSReverseResolver.sol\":1190:1219  resolverAddress == address(0) */\n      0xffffffffffffffffffffffffffffffffffffffff\n      and\n        /* \"NNSENSReverseResolver/contracts/utils/NNSENSReverseResolver.sol\":1190:1205  resolverAddress */\n      dup2\n        /* \"NNSENSReverseResolver/contracts/utils/NNSENSReverseResolver.sol\":1190:1219  resolverAddress == address(0) */\n      0xffffffffffffffffffffffffffffffffffffffff\n      and\n      sub\n        /* \"NNSENSReverseResolver/contracts/utils/NNSENSReverseResolver.sol\":1186:1245  if (resolverAddress == address(0)) {... */\n      tag_34\n      jumpi\n        /* \"NNSENSReverseResolver/contracts/utils/NNSENSReverseResolver.sol\":1229:1238  return '' */\n      mload(0x40)\n      dup1\n      0x20\n      add\n      0x40\n      mstore\n      dup1\n      0x00\n      dup2\n      mstore\n      pop\n      swap3\n      pop\n      pop\n      pop\n      jump(tag_25)\n        /* \"NNSENSReverseResolver/contracts/utils/NNSENSReverseResolver.sol\":1186:1245  if (resolverAddress == address(0)) {... */\n    tag_34:\n        /* \"NNSENSReverseResolver/contracts/utils/NNSENSReverseResolver.sol\":1250:1276  INameResolver nameResolver */\n      0x00\n        /* \"NNSENSReverseResolver/contracts/utils/NNSENSReverseResolver.sol\":1293:1308  resolverAddress */\n      dup2\n        /* \"NNSENSReverseResolver/contracts/utils/NNSENSReverseResolver.sol\":1250:1309  INameResolver nameResolver = INameResolver(resolverAddress) */\n      swap1\n      pop\n        /* \"NNSENSReverseResolver/contracts/utils/NNSENSReverseResolver.sol\":1315:1333  string memory name */\n      0x00\n        /* \"NNSENSReverseResolver/contracts/utils/NNSENSReverseResolver.sol\":1336:1348  nameResolver */\n      dup2\n        /* \"NNSENSReverseResolver/contracts/utils/NNSENSReverseResolver.sol\":1336:1353  nameResolver.name */\n      0xffffffffffffffffffffffffffffffffffffffff\n      and\n      0x691f3431\n        /* \"NNSENSReverseResolver/contracts/utils/NNSENSReverseResolver.sol\":1354:1355  n */\n      dup6\n        /* \"NNSENSReverseResolver/contracts/utils/NNSENSReverseResolver.sol\":1336:1356  nameResolver.name(n) */\n      mload(0x40)\n      dup3\n      0xffffffff\n      and\n      0xe0\n      shl\n      dup2\n      mstore\n      0x04\n      add\n      tag_35\n      swap2\n      swap1\n      tag_29\n      jump\t// in\n    tag_35:\n      0x00\n      mload(0x40)\n      dup1\n      dup4\n      sub\n      dup2\n      dup7\n      gas\n      staticcall\n      iszero\n      dup1\n      iszero\n      tag_37\n      jumpi\n      returndatasize\n      0x00\n      dup1\n      returndatacopy\n      revert(0x00, returndatasize)\n    tag_37:\n      pop\n      pop\n      pop\n      pop\n      mload(0x40)\n      returndatasize\n      0x00\n      dup3\n      returndatacopy\n      returndatasize\n      not(0x1f)\n      0x1f\n      dup3\n      add\n      and\n      dup3\n      add\n      dup1\n      0x40\n      mstore\n      pop\n      dup2\n      add\n      swap1\n      tag_38\n      swap2\n      swap1\n      tag_39\n      jump\t// in\n    tag_38:\n        /* \"NNSENSReverseResolver/contracts/utils/NNSENSReverseResolver.sol\":1315:1356  string memory name = nameResolver.name(n) */\n      swap1\n      pop\n        /* \"NNSENSReverseResolver/contracts/utils/NNSENSReverseResolver.sol\":1395:1396  0 */\n      0x00\n        /* \"NNSENSReverseResolver/contracts/utils/NNSENSReverseResolver.sol\":1379:1383  name */\n      dup2\n        /* \"NNSENSReverseResolver/contracts/utils/NNSENSReverseResolver.sol\":1373:1391  bytes(name).length */\n      mload\n        /* \"NNSENSReverseResolver/contracts/utils/NNSENSReverseResolver.sol\":1373:1396  bytes(name).length == 0 */\n      eq\n        /* \"NNSENSReverseResolver/contracts/utils/NNSENSReverseResolver.sol\":1373:1455  bytes(name).length == 0 ||... */\n      dup1\n      tag_40\n      jumpi\n      pop\n        /* \"NNSENSReverseResolver/contracts/utils/NNSENSReverseResolver.sol\":500:566  0x918d5359431a7007dec0d4722530b0726c0e1010a959bd8b871a6a5d6337144a */\n      0x918d5359431a7007dec0d4722530b0726c0e1010a959bd8b871a6a5d6337144a\n        /* \"NNSENSReverseResolver/contracts/utils/NNSENSReverseResolver.sol\":1443:1455  ZERO_ADDRESS */\n      0x00\n      shl\n        /* \"NNSENSReverseResolver/contracts/utils/NNSENSReverseResolver.sol\":1433:1437  name */\n      dup2\n        /* \"NNSENSReverseResolver/contracts/utils/NNSENSReverseResolver.sol\":1416:1438  abi.encodePacked(name) */\n      add(0x20, mload(0x40))\n      tag_41\n      swap2\n      swap1\n      tag_42\n      jump\t// in\n    tag_41:\n      mload(0x40)\n      0x20\n      dup2\n      dup4\n      sub\n      sub\n      dup2\n      mstore\n      swap1\n      0x40\n      mstore\n        /* \"NNSENSReverseResolver/contracts/utils/NNSENSReverseResolver.sol\":1406:1439  keccak256(abi.encodePacked(name)) */\n      dup1\n      mload\n      swap1\n      0x20\n      add\n      keccak256\n        /* \"NNSENSReverseResolver/contracts/utils/NNSENSReverseResolver.sol\":1406:1455  keccak256(abi.encodePacked(name)) == ZERO_ADDRESS */\n      eq\n        /* \"NNSENSReverseResolver/contracts/utils/NNSENSReverseResolver.sol\":1373:1455  bytes(name).length == 0 ||... */\n    tag_40:\n        /* \"NNSENSReverseResolver/contracts/utils/NNSENSReverseResolver.sol\":1362:1486  if (... */\n      iszero\n      tag_43\n      jumpi\n        /* \"NNSENSReverseResolver/contracts/utils/NNSENSReverseResolver.sol\":1470:1479  return '' */\n      mload(0x40)\n      dup1\n      0x20\n      add\n      0x40\n      mstore\n      dup1\n      0x00\n      dup2\n      mstore\n      pop\n      swap5\n      pop\n      pop\n      pop\n      pop\n      pop\n      jump(tag_25)\n        /* \"NNSENSReverseResolver/contracts/utils/NNSENSReverseResolver.sol\":1362:1486  if (... */\n    tag_43:\n        /* \"NNSENSReverseResolver/contracts/utils/NNSENSReverseResolver.sol\":1514:1530  bytes32 nameNode */\n      0x00\n        /* \"NNSENSReverseResolver/contracts/utils/NNSENSReverseResolver.sol\":1533:1555  bytes(name).namehash() */\n      tag_44\n        /* \"NNSENSReverseResolver/contracts/utils/NNSENSReverseResolver.sol\":1539:1543  name */\n      dup3\n        /* \"NNSENSReverseResolver/contracts/utils/NNSENSReverseResolver.sol\":1533:1553  bytes(name).namehash */\n      tag_45\n        /* \"NNSENSReverseResolver/contracts/utils/NNSENSReverseResolver.sol\":1533:1555  bytes(name).namehash() */\n      jump\t// in\n    tag_44:\n        /* \"NNSENSReverseResolver/contracts/utils/NNSENSReverseResolver.sol\":1514:1555  bytes32 nameNode = bytes(name).namehash() */\n      swap1\n      pop\n        /* \"NNSENSReverseResolver/contracts/utils/NNSENSReverseResolver.sol\":1561:1585  address addrResolverAddr */\n      0x00\n        /* \"NNSENSReverseResolver/contracts/utils/NNSENSReverseResolver.sol\":1588:1596  registry */\n      dup8\n        /* \"NNSENSReverseResolver/contracts/utils/NNSENSReverseResolver.sol\":1588:1605  registry.resolver */\n      0xffffffffffffffffffffffffffffffffffffffff\n      and\n      0x0178b8bf\n        /* \"NNSENSReverseResolver/contracts/utils/NNSENSReverseResolver.sol\":1606:1614  nameNode */\n      dup4\n        /* \"NNSENSReverseResolver/contracts/utils/NNSENSReverseResolver.sol\":1588:1615  registry.resolver(nameNode) */\n      mload(0x40)\n      dup3\n      0xffffffff\n      and\n      0xe0\n      shl\n      dup2\n      mstore\n      0x04\n      add\n      tag_46\n      swap2\n      swap1\n      tag_29\n      jump\t// in\n    tag_46:\n      0x20\n      mload(0x40)\n      dup1\n      dup4\n      sub\n      dup2\n      dup7\n      gas\n      staticcall\n      iszero\n      dup1\n      iszero\n      tag_48\n      jumpi\n      returndatasize\n      0x00\n      dup1\n      returndatacopy\n      revert(0x00, returndatasize)\n    tag_48:\n      pop\n      pop\n      pop\n      pop\n      mload(0x40)\n      returndatasize\n      not(0x1f)\n      0x1f\n      dup3\n      add\n      and\n      dup3\n      add\n      dup1\n      0x40\n      mstore\n      pop\n      dup2\n      add\n      swap1\n      tag_49\n      swap2\n      swap1\n      tag_33\n      jump\t// in\n    tag_49:\n        /* \"NNSENSReverseResolver/contracts/utils/NNSENSReverseResolver.sol\":1561:1615  address addrResolverAddr = registry.resolver(nameNode) */\n      swap1\n      pop\n        /* \"NNSENSReverseResolver/contracts/utils/NNSENSReverseResolver.sol\":1653:1654  0 */\n      0x00\n        /* \"NNSENSReverseResolver/contracts/utils/NNSENSReverseResolver.sol\":1625:1655  addrResolverAddr == address(0) */\n      0xffffffffffffffffffffffffffffffffffffffff\n      and\n        /* \"NNSENSReverseResolver/contracts/utils/NNSENSReverseResolver.sol\":1625:1641  addrResolverAddr */\n      dup2\n        /* \"NNSENSReverseResolver/contracts/utils/NNSENSReverseResolver.sol\":1625:1655  addrResolverAddr == address(0) */\n      0xffffffffffffffffffffffffffffffffffffffff\n      and\n      sub\n        /* \"NNSENSReverseResolver/contracts/utils/NNSENSReverseResolver.sol\":1621:1681  if (addrResolverAddr == address(0)) {... */\n      tag_50\n      jumpi\n        /* \"NNSENSReverseResolver/contracts/utils/NNSENSReverseResolver.sol\":1665:1674  return '' */\n      mload(0x40)\n      dup1\n      0x20\n      add\n      0x40\n      mstore\n      dup1\n      0x00\n      dup2\n      mstore\n      pop\n      swap7\n      pop\n      pop\n      pop\n      pop\n      pop\n      pop\n      pop\n      jump(tag_25)\n        /* \"NNSENSReverseResolver/contracts/utils/NNSENSReverseResolver.sol\":1621:1681  if (addrResolverAddr == address(0)) {... */\n    tag_50:\n        /* \"NNSENSReverseResolver/contracts/utils/NNSENSReverseResolver.sol\":1686:1712  IAddrResolver addrResolver */\n      0x00\n        /* \"NNSENSReverseResolver/contracts/utils/NNSENSReverseResolver.sol\":1729:1745  addrResolverAddr */\n      dup2\n        /* \"NNSENSReverseResolver/contracts/utils/NNSENSReverseResolver.sol\":1686:1746  IAddrResolver addrResolver = IAddrResolver(addrResolverAddr) */\n      swap1\n      pop\n        /* \"NNSENSReverseResolver/contracts/utils/NNSENSReverseResolver.sol\":1752:1767  address revAddr */\n      0x00\n        /* \"NNSENSReverseResolver/contracts/utils/NNSENSReverseResolver.sol\":1770:1782  addrResolver */\n      dup2\n        /* \"NNSENSReverseResolver/contracts/utils/NNSENSReverseResolver.sol\":1770:1787  addrResolver.addr */\n      0xffffffffffffffffffffffffffffffffffffffff\n      and\n      0x3b3b57de\n        /* \"NNSENSReverseResolver/contracts/utils/NNSENSReverseResolver.sol\":1788:1796  nameNode */\n      dup6\n        /* \"NNSENSReverseResolver/contracts/utils/NNSENSReverseResolver.sol\":1770:1797  addrResolver.addr(nameNode) */\n      mload(0x40)\n      dup3\n      0xffffffff\n      and\n      0xe0\n      shl\n      dup2\n      mstore\n      0x04\n      add\n      tag_51\n      swap2\n      swap1\n      tag_29\n      jump\t// in\n    tag_51:\n      0x20\n      mload(0x40)\n      dup1\n      dup4\n      sub\n      dup2\n      dup7\n      gas\n      staticcall\n      iszero\n      dup1\n      iszero\n      tag_53\n      jumpi\n      returndatasize\n      0x00\n      dup1\n      returndatacopy\n      revert(0x00, returndatasize)\n    tag_53:\n      pop\n      pop\n      pop\n      pop\n      mload(0x40)\n      returndatasize\n      not(0x1f)\n      0x1f\n      dup3\n      add\n      and\n      dup3\n      add\n      dup1\n      0x40\n      mstore\n      pop\n      dup2\n      add\n      swap1\n      tag_54\n      swap2\n      swap1\n      tag_55\n      jump\t// in\n    tag_54:\n        /* \"NNSENSReverseResolver/contracts/utils/NNSENSReverseResolver.sol\":1752:1797  address revAddr = addrResolver.addr(nameNode) */\n      swap1\n      pop\n        /* \"NNSENSReverseResolver/contracts/utils/NNSENSReverseResolver.sol\":1818:1822  addr */\n      dup11\n        /* \"NNSENSReverseResolver/contracts/utils/NNSENSReverseResolver.sol\":1807:1822  revAddr != addr */\n      0xffffffffffffffffffffffffffffffffffffffff\n      and\n        /* \"NNSENSReverseResolver/contracts/utils/NNSENSReverseResolver.sol\":1807:1814  revAddr */\n      dup2\n        /* \"NNSENSReverseResolver/contracts/utils/NNSENSReverseResolver.sol\":1807:1822  revAddr != addr */\n      0xffffffffffffffffffffffffffffffffffffffff\n      and\n      eq\n        /* \"NNSENSReverseResolver/contracts/utils/NNSENSReverseResolver.sol\":1803:1848  if (revAddr != addr) {... */\n      tag_56\n      jumpi\n        /* \"NNSENSReverseResolver/contracts/utils/NNSENSReverseResolver.sol\":1832:1841  return '' */\n      mload(0x40)\n      dup1\n      0x20\n      add\n      0x40\n      mstore\n      dup1\n      0x00\n      dup2\n      mstore\n      pop\n      swap9\n      pop\n      pop\n      pop\n      pop\n      pop\n      pop\n      pop\n      pop\n      pop\n      jump(tag_25)\n        /* \"NNSENSReverseResolver/contracts/utils/NNSENSReverseResolver.sol\":1803:1848  if (revAddr != addr) {... */\n    tag_56:\n        /* \"NNSENSReverseResolver/contracts/utils/NNSENSReverseResolver.sol\":1862:1866  name */\n      dup5\n        /* \"NNSENSReverseResolver/contracts/utils/NNSENSReverseResolver.sol\":1855:1866  return name */\n      swap9\n      pop\n      pop\n      pop\n      pop\n      pop\n      pop\n      pop\n      pop\n      pop\n        /* \"NNSENSReverseResolver/contracts/utils/NNSENSReverseResolver.sol\":963:1871  function _resolve(address addr, ENS registry)... */\n    tag_25:\n      swap3\n      swap2\n      pop\n      pop\n      jump\t// out\n        /* \"NNSENSReverseResolver/contracts/utils/NNSENSReverseResolver.sol\":1875:2031  function reverseAddrNode(address addr) private pure returns (bytes32) {... */\n    tag_27:\n        /* \"NNSENSReverseResolver/contracts/utils/NNSENSReverseResolver.sol\":1936:1943  bytes32 */\n      0x00\n        /* \"NNSENSReverseResolver/contracts/utils/NNSENSReverseResolver.sol\":386:452  0x91d1777781884d03a6757a803996e38de2a42967fb37eeaca72729271025a9e2 */\n      0x91d1777781884d03a6757a803996e38de2a42967fb37eeaca72729271025a9e2\n        /* \"NNSENSReverseResolver/contracts/utils/NNSENSReverseResolver.sol\":1985:2002  ADDR_REVERSE_NODE */\n      0x00\n      shl\n        /* \"NNSENSReverseResolver/contracts/utils/NNSENSReverseResolver.sol\":2004:2024  sha3HexAddress(addr) */\n      tag_58\n        /* \"NNSENSReverseResolver/contracts/utils/NNSENSReverseResolver.sol\":2019:2023  addr */\n      dup4\n        /* \"NNSENSReverseResolver/contracts/utils/NNSENSReverseResolver.sol\":2004:2018  sha3HexAddress */\n      tag_59\n        /* \"NNSENSReverseResolver/contracts/utils/NNSENSReverseResolver.sol\":2004:2024  sha3HexAddress(addr) */\n      jump\t// in\n    tag_58:\n        /* \"NNSENSReverseResolver/contracts/utils/NNSENSReverseResolver.sol\":1968:2025  abi.encodePacked(ADDR_REVERSE_NODE, sha3HexAddress(addr)) */\n      add(0x20, mload(0x40))\n      tag_60\n      swap3\n      swap2\n      swap1\n      tag_61\n      jump\t// in\n    tag_60:\n      mload(0x40)\n      0x20\n      dup2\n      dup4\n      sub\n      sub\n      dup2\n      mstore\n      swap1\n      0x40\n      mstore\n        /* \"NNSENSReverseResolver/contracts/utils/NNSENSReverseResolver.sol\":1958:2026  keccak256(abi.encodePacked(ADDR_REVERSE_NODE, sha3HexAddress(addr))) */\n      dup1\n      mload\n      swap1\n      0x20\n      add\n      keccak256\n        /* \"NNSENSReverseResolver/contracts/utils/NNSENSReverseResolver.sol\":1951:2026  return keccak256(abi.encodePacked(ADDR_REVERSE_NODE, sha3HexAddress(addr))) */\n      swap1\n      pop\n        /* \"NNSENSReverseResolver/contracts/utils/NNSENSReverseResolver.sol\":1875:2031  function reverseAddrNode(address addr) private pure returns (bytes32) {... */\n      swap2\n      swap1\n      pop\n      jump\t// out\n        /* \"NNSENSReverseResolver/contracts/utils/ENSNamehash.sol\":83:191  function namehash(bytes memory domain) internal pure returns (bytes32) {... */\n    tag_45:\n        /* \"NNSENSReverseResolver/contracts/utils/ENSNamehash.sol\":145:152  bytes32 */\n      0x00\n        /* \"NNSENSReverseResolver/contracts/utils/ENSNamehash.sol\":167:186  namehash(domain, 0) */\n      tag_63\n        /* \"NNSENSReverseResolver/contracts/utils/ENSNamehash.sol\":176:182  domain */\n      dup3\n        /* \"NNSENSReverseResolver/contracts/utils/ENSNamehash.sol\":184:185  0 */\n      0x00\n        /* \"NNSENSReverseResolver/contracts/utils/ENSNamehash.sol\":167:175  namehash */\n      tag_64\n        /* \"NNSENSReverseResolver/contracts/utils/ENSNamehash.sol\":167:186  namehash(domain, 0) */\n      jump\t// in\n    tag_63:\n        /* \"NNSENSReverseResolver/contracts/utils/ENSNamehash.sol\":160:186  return namehash(domain, 0) */\n      swap1\n      pop\n        /* \"NNSENSReverseResolver/contracts/utils/ENSNamehash.sol\":83:191  function namehash(bytes memory domain) internal pure returns (bytes32) {... */\n      swap2\n      swap1\n      pop\n      jump\t// out\n        /* \"NNSENSReverseResolver/contracts/utils/NNSENSReverseResolver.sol\":2035:2606  function sha3HexAddress(address addr) private pure returns (bytes32 ret) {... */\n    tag_59:\n        /* \"NNSENSReverseResolver/contracts/utils/NNSENSReverseResolver.sol\":2095:2106  bytes32 ret */\n      0x00\n        /* \"NNSENSReverseResolver/contracts/utils/NNSENSReverseResolver.sol\":2220:2286  0x3031323334353637383961626364656600000000000000000000000000000000 */\n      0x3031323334353637383961626364656600000000000000000000000000000000\n        /* \"NNSENSReverseResolver/contracts/utils/NNSENSReverseResolver.sol\":2317:2319  40 */\n      0x28\n        /* \"NNSENSReverseResolver/contracts/utils/NNSENSReverseResolver.sol\":2294:2565  for {... */\n    tag_66:\n        /* \"NNSENSReverseResolver/contracts/utils/NNSENSReverseResolver.sol\":2334:2335  0 */\n      0x00\n        /* \"NNSENSReverseResolver/contracts/utils/NNSENSReverseResolver.sol\":2331:2332  i */\n      dup2\n        /* \"NNSENSReverseResolver/contracts/utils/NNSENSReverseResolver.sol\":2328:2336  gt(i, 0) */\n      gt\n        /* \"NNSENSReverseResolver/contracts/utils/NNSENSReverseResolver.sol\":2294:2565  for {... */\n      iszero\n      tag_68\n      jumpi\n        /* \"NNSENSReverseResolver/contracts/utils/NNSENSReverseResolver.sol\":2370:2371  1 */\n      0x01\n        /* \"NNSENSReverseResolver/contracts/utils/NNSENSReverseResolver.sol\":2367:2368  i */\n      dup2\n        /* \"NNSENSReverseResolver/contracts/utils/NNSENSReverseResolver.sol\":2363:2372  sub(i, 1) */\n      sub\n        /* \"NNSENSReverseResolver/contracts/utils/NNSENSReverseResolver.sol\":2358:2372  i := sub(i, 1) */\n      swap1\n      pop\n        /* \"NNSENSReverseResolver/contracts/utils/NNSENSReverseResolver.sol\":2413:2419  lookup */\n      dup2\n        /* \"NNSENSReverseResolver/contracts/utils/NNSENSReverseResolver.sol\":2407:2410  0xf */\n      0x0f\n        /* \"NNSENSReverseResolver/contracts/utils/NNSENSReverseResolver.sol\":2401:2405  addr */\n      dup6\n        /* \"NNSENSReverseResolver/contracts/utils/NNSENSReverseResolver.sol\":2397:2411  and(addr, 0xf) */\n      and\n        /* \"NNSENSReverseResolver/contracts/utils/NNSENSReverseResolver.sol\":2392:2420  byte(and(addr, 0xf), lookup) */\n      byte\n        /* \"NNSENSReverseResolver/contracts/utils/NNSENSReverseResolver.sol\":2389:2390  i */\n      dup2\n        /* \"NNSENSReverseResolver/contracts/utils/NNSENSReverseResolver.sol\":2381:2421  mstore8(i, byte(and(addr, 0xf), lookup)) */\n      mstore8\n        /* \"NNSENSReverseResolver/contracts/utils/NNSENSReverseResolver.sol\":2448:2452  0x10 */\n      0x10\n        /* \"NNSENSReverseResolver/contracts/utils/NNSENSReverseResolver.sol\":2442:2446  addr */\n      dup5\n        /* \"NNSENSReverseResolver/contracts/utils/NNSENSReverseResolver.sol\":2438:2453  div(addr, 0x10) */\n      div\n        /* \"NNSENSReverseResolver/contracts/utils/NNSENSReverseResolver.sol\":2430:2453  addr := div(addr, 0x10) */\n      swap4\n      pop\n        /* \"NNSENSReverseResolver/contracts/utils/NNSENSReverseResolver.sol\":2474:2475  1 */\n      0x01\n        /* \"NNSENSReverseResolver/contracts/utils/NNSENSReverseResolver.sol\":2471:2472  i */\n      dup2\n        /* \"NNSENSReverseResolver/contracts/utils/NNSENSReverseResolver.sol\":2467:2476  sub(i, 1) */\n      sub\n        /* \"NNSENSReverseResolver/contracts/utils/NNSENSReverseResolver.sol\":2462:2476  i := sub(i, 1) */\n      swap1\n      pop\n        /* \"NNSENSReverseResolver/contracts/utils/NNSENSReverseResolver.sol\":2517:2523  lookup */\n      dup2\n        /* \"NNSENSReverseResolver/contracts/utils/NNSENSReverseResolver.sol\":2511:2514  0xf */\n      0x0f\n        /* \"NNSENSReverseResolver/contracts/utils/NNSENSReverseResolver.sol\":2505:2509  addr */\n      dup6\n        /* \"NNSENSReverseResolver/contracts/utils/NNSENSReverseResolver.sol\":2501:2515  and(addr, 0xf) */\n      and\n        /* \"NNSENSReverseResolver/contracts/utils/NNSENSReverseResolver.sol\":2496:2524  byte(and(addr, 0xf), lookup) */\n      byte\n        /* \"NNSENSReverseResolver/contracts/utils/NNSENSReverseResolver.sol\":2493:2494  i */\n      dup2\n        /* \"NNSENSReverseResolver/contracts/utils/NNSENSReverseResolver.sol\":2485:2525  mstore8(i, byte(and(addr, 0xf), lookup)) */\n      mstore8\n        /* \"NNSENSReverseResolver/contracts/utils/NNSENSReverseResolver.sol\":2552:2556  0x10 */\n      0x10\n        /* \"NNSENSReverseResolver/contracts/utils/NNSENSReverseResolver.sol\":2546:2550  addr */\n      dup5\n        /* \"NNSENSReverseResolver/contracts/utils/NNSENSReverseResolver.sol\":2542:2557  div(addr, 0x10) */\n      div\n        /* \"NNSENSReverseResolver/contracts/utils/NNSENSReverseResolver.sol\":2534:2557  addr := div(addr, 0x10) */\n      swap4\n      pop\n        /* \"NNSENSReverseResolver/contracts/utils/NNSENSReverseResolver.sol\":2294:2565  for {... */\n      jump(tag_66)\n    tag_68:\n        /* \"NNSENSReverseResolver/contracts/utils/NNSENSReverseResolver.sol\":2298:2327  {... */\n      pop\n        /* \"NNSENSReverseResolver/contracts/utils/NNSENSReverseResolver.sol\":2593:2595  40 */\n      0x28\n        /* \"NNSENSReverseResolver/contracts/utils/NNSENSReverseResolver.sol\":2590:2591  0 */\n      0x00\n        /* \"NNSENSReverseResolver/contracts/utils/NNSENSReverseResolver.sol\":2580:2596  keccak256(0, 40) */\n      keccak256\n        /* \"NNSENSReverseResolver/contracts/utils/NNSENSReverseResolver.sol\":2573:2596  ret := keccak256(0, 40) */\n      swap2\n      pop\n        /* \"NNSENSReverseResolver/contracts/utils/NNSENSReverseResolver.sol\":2184:2602  {... */\n      pop\n        /* \"NNSENSReverseResolver/contracts/utils/NNSENSReverseResolver.sol\":2035:2606  function sha3HexAddress(address addr) private pure returns (bytes32 ret) {... */\n      swap2\n      swap1\n      pop\n      jump\t// out\n        /* \"NNSENSReverseResolver/contracts/utils/ENSNamehash.sol\":195:520  function namehash(bytes memory domain, uint i) internal pure returns (bytes32) {... */\n    tag_64:\n        /* \"NNSENSReverseResolver/contracts/utils/ENSNamehash.sol\":265:272  bytes32 */\n      0x00\n        /* \"NNSENSReverseResolver/contracts/utils/ENSNamehash.sol\":301:302  i */\n      dup2\n        /* \"NNSENSReverseResolver/contracts/utils/ENSNamehash.sol\":284:290  domain */\n      dup4\n        /* \"NNSENSReverseResolver/contracts/utils/ENSNamehash.sol\":284:297  domain.length */\n      mload\n        /* \"NNSENSReverseResolver/contracts/utils/ENSNamehash.sol\":284:302  domain.length <= i */\n      gt\n        /* \"NNSENSReverseResolver/contracts/utils/ENSNamehash.sol\":280:383  if (domain.length <= i)... */\n      tag_70\n      jumpi\n        /* \"NNSENSReverseResolver/contracts/utils/ENSNamehash.sol\":317:383  0x0000000000000000000000000000000000000000000000000000000000000000 */\n      0x00\n        /* \"NNSENSReverseResolver/contracts/utils/ENSNamehash.sol\":310:383  return 0x0000000000000000000000000000000000000000000000000000000000000000 */\n      dup1\n      shl\n      swap1\n      pop\n      jump(tag_69)\n        /* \"NNSENSReverseResolver/contracts/utils/ENSNamehash.sol\":280:383  if (domain.length <= i)... */\n    tag_70:\n        /* \"NNSENSReverseResolver/contracts/utils/ENSNamehash.sol\":390:398  uint len */\n      0x00\n        /* \"NNSENSReverseResolver/contracts/utils/ENSNamehash.sol\":401:423  LabelLength(domain, i) */\n      tag_71\n        /* \"NNSENSReverseResolver/contracts/utils/ENSNamehash.sol\":413:419  domain */\n      dup5\n        /* \"NNSENSReverseResolver/contracts/utils/ENSNamehash.sol\":421:422  i */\n      dup5\n        /* \"NNSENSReverseResolver/contracts/utils/ENSNamehash.sol\":401:412  LabelLength */\n      tag_72\n        /* \"NNSENSReverseResolver/contracts/utils/ENSNamehash.sol\":401:423  LabelLength(domain, i) */\n      jump\t// in\n    tag_71:\n        /* \"NNSENSReverseResolver/contracts/utils/ENSNamehash.sol\":390:423  uint len = LabelLength(domain, i) */\n      swap1\n      pop\n        /* \"NNSENSReverseResolver/contracts/utils/ENSNamehash.sol\":464:489  namehash(domain, i+len+1) */\n      tag_73\n        /* \"NNSENSReverseResolver/contracts/utils/ENSNamehash.sol\":473:479  domain */\n      dup5\n        /* \"NNSENSReverseResolver/contracts/utils/ENSNamehash.sol\":487:488  1 */\n      0x01\n        /* \"NNSENSReverseResolver/contracts/utils/ENSNamehash.sol\":483:486  len */\n      dup4\n        /* \"NNSENSReverseResolver/contracts/utils/ENSNamehash.sol\":481:482  i */\n      dup7\n        /* \"NNSENSReverseResolver/contracts/utils/ENSNamehash.sol\":481:486  i+len */\n      tag_74\n      swap2\n      swap1\n      tag_75\n      jump\t// in\n    tag_74:\n        /* \"NNSENSReverseResolver/contracts/utils/ENSNamehash.sol\":481:488  i+len+1 */\n      tag_76\n      swap2\n      swap1\n      tag_75\n      jump\t// in\n    tag_76:\n        /* \"NNSENSReverseResolver/contracts/utils/ENSNamehash.sol\":464:472  namehash */\n      tag_64\n        /* \"NNSENSReverseResolver/contracts/utils/ENSNamehash.sol\":464:489  namehash(domain, i+len+1) */\n      jump\t// in\n    tag_73:\n        /* \"NNSENSReverseResolver/contracts/utils/ENSNamehash.sol\":491:513  keccak(domain, i, len) */\n      tag_77\n        /* \"NNSENSReverseResolver/contracts/utils/ENSNamehash.sol\":498:504  domain */\n      dup6\n        /* \"NNSENSReverseResolver/contracts/utils/ENSNamehash.sol\":506:507  i */\n      dup6\n        /* \"NNSENSReverseResolver/contracts/utils/ENSNamehash.sol\":509:512  len */\n      dup5\n        /* \"NNSENSReverseResolver/contracts/utils/ENSNamehash.sol\":491:497  keccak */\n      tag_78\n        /* \"NNSENSReverseResolver/contracts/utils/ENSNamehash.sol\":491:513  keccak(domain, i, len) */\n      jump\t// in\n    tag_77:\n        /* \"NNSENSReverseResolver/contracts/utils/ENSNamehash.sol\":447:514  abi.encodePacked(namehash(domain, i+len+1), keccak(domain, i, len)) */\n      add(0x20, mload(0x40))\n      tag_79\n      swap3\n      swap2\n      swap1\n      tag_61\n      jump\t// in\n    tag_79:\n      mload(0x40)\n      0x20\n      dup2\n      dup4\n      sub\n      sub\n      dup2\n      mstore\n      swap1\n      0x40\n      mstore\n        /* \"NNSENSReverseResolver/contracts/utils/ENSNamehash.sol\":437:515  keccak256(abi.encodePacked(namehash(domain, i+len+1), keccak(domain, i, len))) */\n      dup1\n      mload\n      swap1\n      0x20\n      add\n      keccak256\n        /* \"NNSENSReverseResolver/contracts/utils/ENSNamehash.sol\":430:515  return keccak256(abi.encodePacked(namehash(domain, i+len+1), keccak(domain, i, len))) */\n      swap2\n      pop\n      pop\n        /* \"NNSENSReverseResolver/contracts/utils/ENSNamehash.sol\":195:520  function namehash(bytes memory domain, uint i) internal pure returns (bytes32) {... */\n    tag_69:\n      swap3\n      swap2\n      pop\n      pop\n      jump\t// out\n        /* \"NNSENSReverseResolver/contracts/utils/ENSNamehash.sol\":524:718  function LabelLength(bytes memory domain, uint i) private pure returns (uint) {... */\n    tag_72:\n        /* \"NNSENSReverseResolver/contracts/utils/ENSNamehash.sol\":596:600  uint */\n      0x00\n        /* \"NNSENSReverseResolver/contracts/utils/ENSNamehash.sol\":608:616  uint len */\n      dup1\n        /* \"NNSENSReverseResolver/contracts/utils/ENSNamehash.sol\":622:698  while (i+len != domain.length && domain[i+len] != 0x2e) {... */\n    tag_81:\n        /* \"NNSENSReverseResolver/contracts/utils/ENSNamehash.sol\":638:644  domain */\n      dup4\n        /* \"NNSENSReverseResolver/contracts/utils/ENSNamehash.sol\":638:651  domain.length */\n      mload\n        /* \"NNSENSReverseResolver/contracts/utils/ENSNamehash.sol\":631:634  len */\n      dup2\n        /* \"NNSENSReverseResolver/contracts/utils/ENSNamehash.sol\":629:630  i */\n      dup5\n        /* \"NNSENSReverseResolver/contracts/utils/ENSNamehash.sol\":629:634  i+len */\n      tag_83\n      swap2\n      swap1\n      tag_75\n      jump\t// in\n    tag_83:\n        /* \"NNSENSReverseResolver/contracts/utils/ENSNamehash.sol\":629:651  i+len != domain.length */\n      eq\n      iszero\n        /* \"NNSENSReverseResolver/contracts/utils/ENSNamehash.sol\":629:676  i+len != domain.length && domain[i+len] != 0x2e */\n      dup1\n      iszero\n      tag_84\n      jumpi\n      pop\n        /* \"NNSENSReverseResolver/contracts/utils/ENSNamehash.sol\":672:676  0x2e */\n      0x2e\n        /* \"NNSENSReverseResolver/contracts/utils/ENSNamehash.sol\":655:676  domain[i+len] != 0x2e */\n      0xf8\n      shl\n        /* \"NNSENSReverseResolver/contracts/utils/ENSNamehash.sol\":655:661  domain */\n      dup5\n        /* \"NNSENSReverseResolver/contracts/utils/ENSNamehash.sol\":664:667  len */\n      dup3\n        /* \"NNSENSReverseResolver/contracts/utils/ENSNamehash.sol\":662:663  i */\n      dup6\n        /* \"NNSENSReverseResolver/contracts/utils/ENSNamehash.sol\":662:667  i+len */\n      tag_85\n      swap2\n      swap1\n      tag_75\n      jump\t// in\n    tag_85:\n        /* \"NNSENSReverseResolver/contracts/utils/ENSNamehash.sol\":655:668  domain[i+len] */\n      dup2\n      mload\n      dup2\n      lt\n      tag_86\n      jumpi\n      tag_87\n      tag_88\n      jump\t// in\n    tag_87:\n    tag_86:\n      0x20\n      add\n      add\n      mload\n      0xf8\n      shr\n      0xf8\n      shl\n        /* \"NNSENSReverseResolver/contracts/utils/ENSNamehash.sol\":655:676  domain[i+len] != 0x2e */\n      not(0xffffffffffffffffffffffffffffffffffffffffffffffffffffffffffffff)\n      and\n      eq\n      iszero\n        /* \"NNSENSReverseResolver/contracts/utils/ENSNamehash.sol\":629:676  i+len != domain.length && domain[i+len] != 0x2e */\n    tag_84:\n        /* \"NNSENSReverseResolver/contracts/utils/ENSNamehash.sol\":622:698  while (i+len != domain.length && domain[i+len] != 0x2e) {... */\n      iszero\n      tag_82\n      jumpi\n        /* \"NNSENSReverseResolver/contracts/utils/ENSNamehash.sol\":686:691  len++ */\n      dup1\n      dup1\n      tag_89\n      swap1\n      tag_90\n      jump\t// in\n    tag_89:\n      swap2\n      pop\n      pop\n        /* \"NNSENSReverseResolver/contracts/utils/ENSNamehash.sol\":622:698  while (i+len != domain.length && domain[i+len] != 0x2e) {... */\n      jump(tag_81)\n    tag_82:\n        /* \"NNSENSReverseResolver/contracts/utils/ENSNamehash.sol\":710:713  len */\n      dup1\n        /* \"NNSENSReverseResolver/contracts/utils/ENSNamehash.sol\":703:713  return len */\n      swap2\n      pop\n      pop\n        /* \"NNSENSReverseResolver/contracts/utils/ENSNamehash.sol\":524:718  function LabelLength(bytes memory domain, uint i) private pure returns (uint) {... */\n      swap3\n      swap2\n      pop\n      pop\n      jump\t// out\n        /* \"NNSENSReverseResolver/contracts/utils/ENSNamehash.sol\":722:939  function keccak(bytes memory data, uint offset, uint len) private pure returns (bytes32 ret) {... */\n    tag_78:\n        /* \"NNSENSReverseResolver/contracts/utils/ENSNamehash.sol\":802:813  bytes32 ret */\n      0x00\n        /* \"NNSENSReverseResolver/contracts/utils/ENSNamehash.sol\":845:849  data */\n      dup4\n        /* \"NNSENSReverseResolver/contracts/utils/ENSNamehash.sol\":845:856  data.length */\n      mload\n        /* \"NNSENSReverseResolver/contracts/utils/ENSNamehash.sol\":838:841  len */\n      dup3\n        /* \"NNSENSReverseResolver/contracts/utils/ENSNamehash.sol\":829:835  offset */\n      dup5\n        /* \"NNSENSReverseResolver/contracts/utils/ENSNamehash.sol\":829:841  offset + len */\n      tag_92\n      swap2\n      swap1\n      tag_75\n      jump\t// in\n    tag_92:\n        /* \"NNSENSReverseResolver/contracts/utils/ENSNamehash.sol\":829:856  offset + len <= data.length */\n      gt\n      iszero\n        /* \"NNSENSReverseResolver/contracts/utils/ENSNamehash.sol\":821:857  require(offset + len <= data.length) */\n      tag_93\n      jumpi\n      0x00\n      dup1\n      revert\n    tag_93:\n        /* \"NNSENSReverseResolver/contracts/utils/ENSNamehash.sol\":925:928  len */\n      dup2\n        /* \"NNSENSReverseResolver/contracts/utils/ENSNamehash.sol\":916:922  offset */\n      dup4\n        /* \"NNSENSReverseResolver/contracts/utils/ENSNamehash.sol\":911:913  32 */\n      0x20\n        /* \"NNSENSReverseResolver/contracts/utils/ENSNamehash.sol\":905:909  data */\n      dup7\n        /* \"NNSENSReverseResolver/contracts/utils/ENSNamehash.sol\":901:914  add(data, 32) */\n      add\n        /* \"NNSENSReverseResolver/contracts/utils/ENSNamehash.sol\":897:923  add(add(data, 32), offset) */\n      add\n        /* \"NNSENSReverseResolver/contracts/utils/ENSNamehash.sol\":887:929  keccak256(add(add(data, 32), offset), len) */\n      keccak256\n        /* \"NNSENSReverseResolver/contracts/utils/ENSNamehash.sol\":880:929  ret := keccak256(add(add(data, 32), offset), len) */\n      swap1\n      pop\n        /* \"NNSENSReverseResolver/contracts/utils/ENSNamehash.sol\":722:939  function keccak(bytes memory data, uint offset, uint len) private pure returns (bytes32 ret) {... */\n      swap4\n      swap3\n      pop\n      pop\n      pop\n      jump\t// out\n        /* \"#utility.yul\":7:133   */\n    tag_94:\n        /* \"#utility.yul\":44:51   */\n      0x00\n        /* \"#utility.yul\":84:126   */\n      0xffffffffffffffffffffffffffffffffffffffff\n        /* \"#utility.yul\":77:82   */\n      dup3\n        /* \"#utility.yul\":73:127   */\n      and\n        /* \"#utility.yul\":62:127   */\n      swap1\n      pop\n        /* \"#utility.yul\":7:133   */\n      swap2\n      swap1\n      pop\n      jump\t// out\n        /* \"#utility.yul\":139:199   */\n    tag_95:\n        /* \"#utility.yul\":167:170   */\n      0x00\n        /* \"#utility.yul\":188:193   */\n      dup2\n        /* \"#utility.yul\":181:193   */\n      swap1\n      pop\n        /* \"#utility.yul\":139:199   */\n      swap2\n      swap1\n      pop\n      jump\t// out\n        /* \"#utility.yul\":205:347   */\n    tag_96:\n        /* \"#utility.yul\":255:264   */\n      0x00\n        /* \"#utility.yul\":288:341   */\n      tag_135\n        /* \"#utility.yul\":306:340   */\n      tag_136\n        /* \"#utility.yul\":315:339   */\n      tag_137\n        /* \"#utility.yul\":333:338   */\n      dup5\n        /* \"#utility.yul\":315:339   */\n      tag_94\n      jump\t// in\n    tag_137:\n        /* \"#utility.yul\":306:340   */\n      tag_95\n      jump\t// in\n    tag_136:\n        /* \"#utility.yul\":288:341   */\n      tag_94\n      jump\t// in\n    tag_135:\n        /* \"#utility.yul\":275:341   */\n      swap1\n      pop\n        /* \"#utility.yul\":205:347   */\n      swap2\n      swap1\n      pop\n      jump\t// out\n        /* \"#utility.yul\":353:479   */\n    tag_97:\n        /* \"#utility.yul\":403:412   */\n      0x00\n        /* \"#utility.yul\":436:473   */\n      tag_139\n        /* \"#utility.yul\":467:472   */\n      dup3\n        /* \"#utility.yul\":436:473   */\n      tag_96\n      jump\t// in\n    tag_139:\n        /* \"#utility.yul\":423:473   */\n      swap1\n      pop\n        /* \"#utility.yul\":353:479   */\n      swap2\n      swap1\n      pop\n      jump\t// out\n        /* \"#utility.yul\":485:622   */\n    tag_98:\n        /* \"#utility.yul\":546:555   */\n      0x00\n        /* \"#utility.yul\":579:616   */\n      tag_141\n        /* \"#utility.yul\":610:615   */\n      dup3\n        /* \"#utility.yul\":579:616   */\n      tag_97\n      jump\t// in\n    tag_141:\n        /* \"#utility.yul\":566:616   */\n      swap1\n      pop\n        /* \"#utility.yul\":485:622   */\n      swap2\n      swap1\n      pop\n      jump\t// out\n        /* \"#utility.yul\":628:781   */\n    tag_99:\n        /* \"#utility.yul\":726:774   */\n      tag_143\n        /* \"#utility.yul\":768:773   */\n      dup2\n        /* \"#utility.yul\":726:774   */\n      tag_98\n      jump\t// in\n    tag_143:\n        /* \"#utility.yul\":721:724   */\n      dup3\n        /* \"#utility.yul\":714:775   */\n      mstore\n        /* \"#utility.yul\":628:781   */\n      pop\n      pop\n      jump\t// out\n        /* \"#utility.yul\":787:1031   */\n    tag_9:\n        /* \"#utility.yul\":891:895   */\n      0x00\n        /* \"#utility.yul\":929:931   */\n      0x20\n        /* \"#utility.yul\":918:927   */\n      dup3\n        /* \"#utility.yul\":914:932   */\n      add\n        /* \"#utility.yul\":906:932   */\n      swap1\n      pop\n        /* \"#utility.yul\":942:1024   */\n      tag_145\n        /* \"#utility.yul\":1021:1022   */\n      0x00\n        /* \"#utility.yul\":1010:1019   */\n      dup4\n        /* \"#utility.yul\":1006:1023   */\n      add\n        /* \"#utility.yul\":997:1003   */\n      dup5\n        /* \"#utility.yul\":942:1024   */\n      tag_99\n      jump\t// in\n    tag_145:\n        /* \"#utility.yul\":787:1031   */\n      swap3\n      swap2\n      pop\n      pop\n      jump\t// out\n        /* \"#utility.yul\":1037:1112   */\n    tag_100:\n        /* \"#utility.yul\":1070:1076   */\n      0x00\n        /* \"#utility.yul\":1103:1105   */\n      0x40\n        /* \"#utility.yul\":1097:1106   */\n      mload\n        /* \"#utility.yul\":1087:1106   */\n      swap1\n      pop\n        /* \"#utility.yul\":1037:1112   */\n      swap1\n      jump\t// out\n        /* \"#utility.yul\":1118:1235   */\n    tag_101:\n        /* \"#utility.yul\":1227:1228   */\n      0x00\n        /* \"#utility.yul\":1224:1225   */\n      dup1\n        /* \"#utility.yul\":1217:1229   */\n      revert\n        /* \"#utility.yul\":1241:1358   */\n    tag_102:\n        /* \"#utility.yul\":1350:1351   */\n      0x00\n        /* \"#utility.yul\":1347:1348   */\n      dup1\n        /* \"#utility.yul\":1340:1352   */\n      revert\n        /* \"#utility.yul\":1364:1460   */\n    tag_103:\n        /* \"#utility.yul\":1401:1408   */\n      0x00\n        /* \"#utility.yul\":1430:1454   */\n      tag_150\n        /* \"#utility.yul\":1448:1453   */\n      dup3\n        /* \"#utility.yul\":1430:1454   */\n      tag_94\n      jump\t// in\n    tag_150:\n        /* \"#utility.yul\":1419:1454   */\n      swap1\n      pop\n        /* \"#utility.yul\":1364:1460   */\n      swap2\n      swap1\n      pop\n      jump\t// out\n        /* \"#utility.yul\":1466:1588   */\n    tag_104:\n        /* \"#utility.yul\":1539:1563   */\n      tag_152\n        /* \"#utility.yul\":1557:1562   */\n      dup2\n        /* \"#utility.yul\":1539:1563   */\n      tag_103\n      jump\t// in\n    tag_152:\n        /* \"#utility.yul\":1532:1537   */\n      dup2\n        /* \"#utility.yul\":1529:1564   */\n      eq\n        /* \"#utility.yul\":1519:1582   */\n      tag_153\n      jumpi\n        /* \"#utility.yul\":1578:1579   */\n      0x00\n        /* \"#utility.yul\":1575:1576   */\n      dup1\n        /* \"#utility.yul\":1568:1580   */\n      revert\n        /* \"#utility.yul\":1519:1582   */\n    tag_153:\n        /* \"#utility.yul\":1466:1588   */\n      pop\n      jump\t// out\n        /* \"#utility.yul\":1594:1733   */\n    tag_105:\n        /* \"#utility.yul\":1640:1645   */\n      0x00\n        /* \"#utility.yul\":1678:1684   */\n      dup2\n        /* \"#utility.yul\":1665:1685   */\n      calldataload\n        /* \"#utility.yul\":1656:1685   */\n      swap1\n      pop\n        /* \"#utility.yul\":1694:1727   */\n      tag_155\n        /* \"#utility.yul\":1721:1726   */\n      dup2\n        /* \"#utility.yul\":1694:1727   */\n      tag_104\n      jump\t// in\n    tag_155:\n        /* \"#utility.yul\":1594:1733   */\n      swap3\n      swap2\n      pop\n      pop\n      jump\t// out\n        /* \"#utility.yul\":1739:2068   */\n    tag_12:\n        /* \"#utility.yul\":1798:1804   */\n      0x00\n        /* \"#utility.yul\":1847:1849   */\n      0x20\n        /* \"#utility.yul\":1835:1844   */\n      dup3\n        /* \"#utility.yul\":1826:1833   */\n      dup5\n        /* \"#utility.yul\":1822:1845   */\n      sub\n        /* \"#utility.yul\":1818:1850   */\n      slt\n        /* \"#utility.yul\":1815:1934   */\n      iszero\n      tag_157\n      jumpi\n        /* \"#utility.yul\":1853:1932   */\n      tag_158\n      tag_101\n      jump\t// in\n    tag_158:\n        /* \"#utility.yul\":1815:1934   */\n    tag_157:\n        /* \"#utility.yul\":1973:1974   */\n      0x00\n        /* \"#utility.yul\":1998:2051   */\n      tag_159\n        /* \"#utility.yul\":2043:2050   */\n      dup5\n        /* \"#utility.yul\":2034:2040   */\n      dup3\n        /* \"#utility.yul\":2023:2032   */\n      dup6\n        /* \"#utility.yul\":2019:2041   */\n      add\n        /* \"#utility.yul\":1998:2051   */\n      tag_105\n      jump\t// in\n    tag_159:\n        /* \"#utility.yul\":1988:2051   */\n      swap2\n      pop\n        /* \"#utility.yul\":1944:2061   */\n      pop\n        /* \"#utility.yul\":1739:2068   */\n      swap3\n      swap2\n      pop\n      pop\n      jump\t// out\n        /* \"#utility.yul\":2074:2173   */\n    tag_106:\n        /* \"#utility.yul\":2126:2132   */\n      0x00\n        /* \"#utility.yul\":2160:2165   */\n      dup2\n        /* \"#utility.yul\":2154:2166   */\n      mload\n        /* \"#utility.yul\":2144:2166   */\n      swap1\n      pop\n        /* \"#utility.yul\":2074:2173   */\n      swap2\n      swap1\n      pop\n      jump\t// out\n        /* \"#utility.yul\":2179:2348   */\n    tag_107:\n        /* \"#utility.yul\":2263:2274   */\n      0x00\n        /* \"#utility.yul\":2297:2303   */\n      dup3\n        /* \"#utility.yul\":2292:2295   */\n      dup3\n        /* \"#utility.yul\":2285:2304   */\n      mstore\n        /* \"#utility.yul\":2337:2341   */\n      0x20\n        /* \"#utility.yul\":2332:2335   */\n      dup3\n        /* \"#utility.yul\":2328:2342   */\n      add\n        /* \"#utility.yul\":2313:2342   */\n      swap1\n      pop\n        /* \"#utility.yul\":2179:2348   */\n      swap3\n      swap2\n      pop\n      pop\n      jump\t// out\n        /* \"#utility.yul\":2354:2600   */\n    tag_108:\n        /* \"#utility.yul\":2435:2436   */\n      0x00\n        /* \"#utility.yul\":2445:2558   */\n    tag_163:\n        /* \"#utility.yul\":2459:2465   */\n      dup4\n        /* \"#utility.yul\":2456:2457   */\n      dup2\n        /* \"#utility.yul\":2453:2466   */\n      lt\n        /* \"#utility.yul\":2445:2558   */\n      iszero\n      tag_165\n      jumpi\n        /* \"#utility.yul\":2544:2545   */\n      dup1\n        /* \"#utility.yul\":2539:2542   */\n      dup3\n        /* \"#utility.yul\":2535:2546   */\n      add\n        /* \"#utility.yul\":2529:2547   */\n      mload\n        /* \"#utility.yul\":2525:2526   */\n      dup2\n        /* \"#utility.yul\":2520:2523   */\n      dup5\n        /* \"#utility.yul\":2516:2527   */\n      add\n        /* \"#utility.yul\":2509:2548   */\n      mstore\n        /* \"#utility.yul\":2481:2483   */\n      0x20\n        /* \"#utility.yul\":2478:2479   */\n      dup2\n        /* \"#utility.yul\":2474:2484   */\n      add\n        /* \"#utility.yul\":2469:2484   */\n      swap1\n      pop\n        /* \"#utility.yul\":2445:2558   */\n      jump(tag_163)\n    tag_165:\n        /* \"#utility.yul\":2592:2593   */\n      0x00\n        /* \"#utility.yul\":2583:2589   */\n      dup5\n        /* \"#utility.yul\":2578:2581   */\n      dup5\n        /* \"#utility.yul\":2574:2590   */\n      add\n        /* \"#utility.yul\":2567:2594   */\n      mstore\n        /* \"#utility.yul\":2416:2600   */\n      pop\n        /* \"#utility.yul\":2354:2600   */\n      pop\n      pop\n      pop\n      jump\t// out\n        /* \"#utility.yul\":2606:2708   */\n    tag_109:\n        /* \"#utility.yul\":2647:2653   */\n      0x00\n        /* \"#utility.yul\":2698:2700   */\n      0x1f\n        /* \"#utility.yul\":2694:2701   */\n      not\n        /* \"#utility.yul\":2689:2691   */\n      0x1f\n        /* \"#utility.yul\":2682:2687   */\n      dup4\n        /* \"#utility.yul\":2678:2692   */\n      add\n        /* \"#utility.yul\":2674:2702   */\n      and\n        /* \"#utility.yul\":2664:2702   */\n      swap1\n      pop\n        /* \"#utility.yul\":2606:2708   */\n      swap2\n      swap1\n      pop\n      jump\t// out\n        /* \"#utility.yul\":2714:3091   */\n    tag_110:\n        /* \"#utility.yul\":2802:2805   */\n      0x00\n        /* \"#utility.yul\":2830:2869   */\n      tag_168\n        /* \"#utility.yul\":2863:2868   */\n      dup3\n        /* \"#utility.yul\":2830:2869   */\n      tag_106\n      jump\t// in\n    tag_168:\n        /* \"#utility.yul\":2885:2956   */\n      tag_169\n        /* \"#utility.yul\":2949:2955   */\n      dup2\n        /* \"#utility.yul\":2944:2947   */\n      dup6\n        /* \"#utility.yul\":2885:2956   */\n      tag_107\n      jump\t// in\n    tag_169:\n        /* \"#utility.yul\":2878:2956   */\n      swap4\n      pop\n        /* \"#utility.yul\":2965:3030   */\n      tag_170\n        /* \"#utility.yul\":3023:3029   */\n      dup2\n        /* \"#utility.yul\":3018:3021   */\n      dup6\n        /* \"#utility.yul\":3011:3015   */\n      0x20\n        /* \"#utility.yul\":3004:3009   */\n      dup7\n        /* \"#utility.yul\":3000:3016   */\n      add\n        /* \"#utility.yul\":2965:3030   */\n      tag_108\n      jump\t// in\n    tag_170:\n        /* \"#utility.yul\":3055:3084   */\n      tag_171\n        /* \"#utility.yul\":3077:3083   */\n      dup2\n        /* \"#utility.yul\":3055:3084   */\n      tag_109\n      jump\t// in\n    tag_171:\n        /* \"#utility.yul\":3050:3053   */\n      dup5\n        /* \"#utility.yul\":3046:3085   */\n      add\n        /* \"#utility.yul\":3039:3085   */\n      swap2\n      pop\n        /* \"#utility.yul\":2806:3091   */\n      pop\n        /* \"#utility.yul\":2714:3091   */\n      swap3\n      swap2\n      pop\n      pop\n      jump\t// out\n        /* \"#utility.yul\":3097:3410   */\n    tag_15:\n        /* \"#utility.yul\":3210:3214   */\n      0x00\n        /* \"#utility.yul\":3248:3250   */\n      0x20\n        /* \"#utility.yul\":3237:3246   */\n      dup3\n        /* \"#utility.yul\":3233:3251   */\n      add\n        /* \"#utility.yul\":3225:3251   */\n      swap1\n      pop\n        /* \"#utility.yul\":3297:3306   */\n      dup2\n        /* \"#utility.yul\":3291:3295   */\n      dup2\n        /* \"#utility.yul\":3287:3307   */\n      sub\n        /* \"#utility.yul\":3283:3284   */\n      0x00\n        /* \"#utility.yul\":3272:3281   */\n      dup4\n        /* \"#utility.yul\":3268:3285   */\n      add\n        /* \"#utility.yul\":3261:3308   */\n      mstore\n        /* \"#utility.yul\":3325:3403   */\n      tag_173\n        /* \"#utility.yul\":3398:3402   */\n      dup2\n        /* \"#utility.yul\":3389:3395   */\n      dup5\n        /* \"#utility.yul\":3325:3403   */\n      tag_110\n      jump\t// in\n    tag_173:\n        /* \"#utility.yul\":3317:3403   */\n      swap1\n      pop\n        /* \"#utility.yul\":3097:3410   */\n      swap3\n      swap2\n      pop\n      pop\n      jump\t// out\n        /* \"#utility.yul\":3416:3493   */\n    tag_111:\n        /* \"#utility.yul\":3453:3460   */\n      0x00\n        /* \"#utility.yul\":3482:3487   */\n      dup2\n        /* \"#utility.yul\":3471:3487   */\n      swap1\n      pop\n        /* \"#utility.yul\":3416:3493   */\n      swap2\n      swap1\n      pop\n      jump\t// out\n        /* \"#utility.yul\":3499:3617   */\n    tag_112:\n        /* \"#utility.yul\":3586:3610   */\n      tag_176\n        /* \"#utility.yul\":3604:3609   */\n      dup2\n        /* \"#utility.yul\":3586:3610   */\n      tag_111\n      jump\t// in\n    tag_176:\n        /* \"#utility.yul\":3581:3584   */\n      dup3\n        /* \"#utility.yul\":3574:3611   */\n      mstore\n        /* \"#utility.yul\":3499:3617   */\n      pop\n      pop\n      jump\t// out\n        /* \"#utility.yul\":3623:3845   */\n    tag_29:\n        /* \"#utility.yul\":3716:3720   */\n      0x00\n        /* \"#utility.yul\":3754:3756   */\n      0x20\n        /* \"#utility.yul\":3743:3752   */\n      dup3\n        /* \"#utility.yul\":3739:3757   */\n      add\n        /* \"#utility.yul\":3731:3757   */\n      swap1\n      pop\n        /* \"#utility.yul\":3767:3838   */\n      tag_178\n        /* \"#utility.yul\":3835:3836   */\n      0x00\n        /* \"#utility.yul\":3824:3833   */\n      dup4\n        /* \"#utility.yul\":3820:3837   */\n      add\n        /* \"#utility.yul\":3811:3817   */\n      dup5\n        /* \"#utility.yul\":3767:3838   */\n      tag_112\n      jump\t// in\n    tag_178:\n        /* \"#utility.yul\":3623:3845   */\n      swap3\n      swap2\n      pop\n      pop\n      jump\t// out\n        /* \"#utility.yul\":3851:3994   */\n    tag_113:\n        /* \"#utility.yul\":3908:3913   */\n      0x00\n        /* \"#utility.yul\":3939:3945   */\n      dup2\n        /* \"#utility.yul\":3933:3946   */\n      mload\n        /* \"#utility.yul\":3924:3946   */\n      swap1\n      pop\n        /* \"#utility.yul\":3955:3988   */\n      tag_180\n        /* \"#utility.yul\":3982:3987   */\n      dup2\n        /* \"#utility.yul\":3955:3988   */\n      tag_104\n      jump\t// in\n    tag_180:\n        /* \"#utility.yul\":3851:3994   */\n      swap3\n      swap2\n      pop\n      pop\n      jump\t// out\n        /* \"#utility.yul\":4000:4351   */\n    tag_33:\n        /* \"#utility.yul\":4070:4076   */\n      0x00\n        /* \"#utility.yul\":4119:4121   */\n      0x20\n        /* \"#utility.yul\":4107:4116   */\n      dup3\n        /* \"#utility.yul\":4098:4105   */\n      dup5\n        /* \"#utility.yul\":4094:4117   */\n      sub\n        /* \"#utility.yul\":4090:4122   */\n      slt\n        /* \"#utility.yul\":4087:4206   */\n      iszero\n      tag_182\n      jumpi\n        /* \"#utility.yul\":4125:4204   */\n      tag_183\n      tag_101\n      jump\t// in\n    tag_183:\n        /* \"#utility.yul\":4087:4206   */\n    tag_182:\n        /* \"#utility.yul\":4245:4246   */\n      0x00\n        /* \"#utility.yul\":4270:4334   */\n      tag_184\n        /* \"#utility.yul\":4326:4333   */\n      dup5\n        /* \"#utility.yul\":4317:4323   */\n      dup3\n        /* \"#utility.yul\":4306:4315   */\n      dup6\n        /* \"#utility.yul\":4302:4324   */\n      add\n        /* \"#utility.yul\":4270:4334   */\n      tag_113\n      jump\t// in\n    tag_184:\n        /* \"#utility.yul\":4260:4334   */\n      swap2\n      pop\n        /* \"#utility.yul\":4216:4344   */\n      pop\n        /* \"#utility.yul\":4000:4351   */\n      swap3\n      swap2\n      pop\n      pop\n      jump\t// out\n        /* \"#utility.yul\":4357:4474   */\n    tag_114:\n        /* \"#utility.yul\":4466:4467   */\n      0x00\n        /* \"#utility.yul\":4463:4464   */\n      dup1\n        /* \"#utility.yul\":4456:4468   */\n      revert\n        /* \"#utility.yul\":4480:4597   */\n    tag_115:\n        /* \"#utility.yul\":4589:4590   */\n      0x00\n        /* \"#utility.yul\":4586:4587   */\n      dup1\n        /* \"#utility.yul\":4579:4591   */\n      revert\n        /* \"#utility.yul\":4603:4783   */\n    tag_116:\n        /* \"#utility.yul\":4651:4728   */\n      0x4e487b7100000000000000000000000000000000000000000000000000000000\n        /* \"#utility.yul\":4648:4649   */\n      0x00\n        /* \"#utility.yul\":4641:4729   */\n      mstore\n        /* \"#utility.yul\":4748:4752   */\n      0x41\n        /* \"#utility.yul\":4745:4746   */\n      0x04\n        /* \"#utility.yul\":4738:4753   */\n      mstore\n        /* \"#utility.yul\":4772:4776   */\n      0x24\n        /* \"#utility.yul\":4769:4770   */\n      0x00\n        /* \"#utility.yul\":4762:4777   */\n      revert\n        /* \"#utility.yul\":4789:5070   */\n    tag_117:\n        /* \"#utility.yul\":4872:4899   */\n      tag_189\n        /* \"#utility.yul\":4894:4898   */\n      dup3\n        /* \"#utility.yul\":4872:4899   */\n      tag_109\n      jump\t// in\n    tag_189:\n        /* \"#utility.yul\":4864:4870   */\n      dup2\n        /* \"#utility.yul\":4860:4900   */\n      add\n        /* \"#utility.yul\":5002:5008   */\n      dup2\n        /* \"#utility.yul\":4990:5000   */\n      dup2\n        /* \"#utility.yul\":4987:5009   */\n      lt\n        /* \"#utility.yul\":4966:4984   */\n      0xffffffffffffffff\n        /* \"#utility.yul\":4954:4964   */\n      dup3\n        /* \"#utility.yul\":4951:4985   */\n      gt\n        /* \"#utility.yul\":4948:5010   */\n      or\n        /* \"#utility.yul\":4945:5033   */\n      iszero\n      tag_190\n      jumpi\n        /* \"#utility.yul\":5013:5031   */\n      tag_191\n      tag_116\n      jump\t// in\n    tag_191:\n        /* \"#utility.yul\":4945:5033   */\n    tag_190:\n        /* \"#utility.yul\":5053:5063   */\n      dup1\n        /* \"#utility.yul\":5049:5051   */\n      0x40\n        /* \"#utility.yul\":5042:5064   */\n      mstore\n        /* \"#utility.yul\":4832:5070   */\n      pop\n        /* \"#utility.yul\":4789:5070   */\n      pop\n      pop\n      jump\t// out\n        /* \"#utility.yul\":5076:5205   */\n    tag_118:\n        /* \"#utility.yul\":5110:5116   */\n      0x00\n        /* \"#utility.yul\":5137:5157   */\n      tag_193\n      tag_100\n      jump\t// in\n    tag_193:\n        /* \"#utility.yul\":5127:5157   */\n      swap1\n      pop\n        /* \"#utility.yul\":5166:5199   */\n      tag_194\n        /* \"#utility.yul\":5194:5198   */\n      dup3\n        /* \"#utility.yul\":5186:5192   */\n      dup3\n        /* \"#utility.yul\":5166:5199   */\n      tag_117\n      jump\t// in\n    tag_194:\n        /* \"#utility.yul\":5076:5205   */\n      swap2\n      swap1\n      pop\n      jump\t// out\n        /* \"#utility.yul\":5211:5519   */\n    tag_119:\n        /* \"#utility.yul\":5273:5277   */\n      0x00\n        /* \"#utility.yul\":5363:5381   */\n      0xffffffffffffffff\n        /* \"#utility.yul\":5355:5361   */\n      dup3\n        /* \"#utility.yul\":5352:5382   */\n      gt\n        /* \"#utility.yul\":5349:5405   */\n      iszero\n      tag_196\n      jumpi\n        /* \"#utility.yul\":5385:5403   */\n      tag_197\n      tag_116\n      jump\t// in\n    tag_197:\n        /* \"#utility.yul\":5349:5405   */\n    tag_196:\n        /* \"#utility.yul\":5423:5452   */\n      tag_198\n        /* \"#utility.yul\":5445:5451   */\n      dup3\n        /* \"#utility.yul\":5423:5452   */\n      tag_109\n      jump\t// in\n    tag_198:\n        /* \"#utility.yul\":5415:5452   */\n      swap1\n      pop\n        /* \"#utility.yul\":5507:5511   */\n      0x20\n        /* \"#utility.yul\":5501:5505   */\n      dup2\n        /* \"#utility.yul\":5497:5512   */\n      add\n        /* \"#utility.yul\":5489:5512   */\n      swap1\n      pop\n        /* \"#utility.yul\":5211:5519   */\n      swap2\n      swap1\n      pop\n      jump\t// out\n        /* \"#utility.yul\":5525:5959   */\n    tag_120:\n        /* \"#utility.yul\":5614:5619   */\n      0x00\n        /* \"#utility.yul\":5639:5705   */\n      tag_200\n        /* \"#utility.yul\":5655:5704   */\n      tag_201\n        /* \"#utility.yul\":5697:5703   */\n      dup5\n        /* \"#utility.yul\":5655:5704   */\n      tag_119\n      jump\t// in\n    tag_201:\n        /* \"#utility.yul\":5639:5705   */\n      tag_118\n      jump\t// in\n    tag_200:\n        /* \"#utility.yul\":5630:5705   */\n      swap1\n      pop\n        /* \"#utility.yul\":5728:5734   */\n      dup3\n        /* \"#utility.yul\":5721:5726   */\n      dup2\n        /* \"#utility.yul\":5714:5735   */\n      mstore\n        /* \"#utility.yul\":5766:5770   */\n      0x20\n        /* \"#utility.yul\":5759:5764   */\n      dup2\n        /* \"#utility.yul\":5755:5771   */\n      add\n        /* \"#utility.yul\":5804:5807   */\n      dup5\n        /* \"#utility.yul\":5795:5801   */\n      dup5\n        /* \"#utility.yul\":5790:5793   */\n      dup5\n        /* \"#utility.yul\":5786:5802   */\n      add\n        /* \"#utility.yul\":5783:5808   */\n      gt\n        /* \"#utility.yul\":5780:5892   */\n      iszero\n      tag_202\n      jumpi\n        /* \"#utility.yul\":5811:5890   */\n      tag_203\n      tag_115\n      jump\t// in\n    tag_203:\n        /* \"#utility.yul\":5780:5892   */\n    tag_202:\n        /* \"#utility.yul\":5901:5953   */\n      tag_204\n        /* \"#utility.yul\":5946:5952   */\n      dup5\n        /* \"#utility.yul\":5941:5944   */\n      dup3\n        /* \"#utility.yul\":5936:5939   */\n      dup6\n        /* \"#utility.yul\":5901:5953   */\n      tag_108\n      jump\t// in\n    tag_204:\n        /* \"#utility.yul\":5620:5959   */\n      pop\n        /* \"#utility.yul\":5525:5959   */\n      swap4\n      swap3\n      pop\n      pop\n      pop\n      jump\t// out\n        /* \"#utility.yul\":5979:6334   */\n    tag_121:\n        /* \"#utility.yul\":6046:6051   */\n      0x00\n        /* \"#utility.yul\":6095:6098   */\n      dup3\n        /* \"#utility.yul\":6088:6092   */\n      0x1f\n        /* \"#utility.yul\":6080:6086   */\n      dup4\n        /* \"#utility.yul\":6076:6093   */\n      add\n        /* \"#utility.yul\":6072:6099   */\n      slt\n        /* \"#utility.yul\":6062:6184   */\n      tag_206\n      jumpi\n        /* \"#utility.yul\":6103:6182   */\n      tag_207\n      tag_114\n      jump\t// in\n    tag_207:\n        /* \"#utility.yul\":6062:6184   */\n    tag_206:\n        /* \"#utility.yul\":6213:6219   */\n      dup2\n        /* \"#utility.yul\":6207:6220   */\n      mload\n        /* \"#utility.yul\":6238:6328   */\n      tag_208\n        /* \"#utility.yul\":6324:6327   */\n      dup5\n        /* \"#utility.yul\":6316:6322   */\n      dup3\n        /* \"#utility.yul\":6309:6313   */\n      0x20\n        /* \"#utility.yul\":6301:6307   */\n      dup7\n        /* \"#utility.yul\":6297:6314   */\n      add\n        /* \"#utility.yul\":6238:6328   */\n      tag_120\n      jump\t// in\n    tag_208:\n        /* \"#utility.yul\":6229:6328   */\n      swap2\n      pop\n        /* \"#utility.yul\":6052:6334   */\n      pop\n        /* \"#utility.yul\":5979:6334   */\n      swap3\n      swap2\n      pop\n      pop\n      jump\t// out\n        /* \"#utility.yul\":6340:6864   */\n    tag_39:\n        /* \"#utility.yul\":6420:6426   */\n      0x00\n        /* \"#utility.yul\":6469:6471   */\n      0x20\n        /* \"#utility.yul\":6457:6466   */\n      dup3\n        /* \"#utility.yul\":6448:6455   */\n      dup5\n        /* \"#utility.yul\":6444:6467   */\n      sub\n        /* \"#utility.yul\":6440:6472   */\n      slt\n        /* \"#utility.yul\":6437:6556   */\n      iszero\n      tag_210\n      jumpi\n        /* \"#utility.yul\":6475:6554   */\n      tag_211\n      tag_101\n      jump\t// in\n    tag_211:\n        /* \"#utility.yul\":6437:6556   */\n    tag_210:\n        /* \"#utility.yul\":6616:6617   */\n      0x00\n        /* \"#utility.yul\":6605:6614   */\n      dup3\n        /* \"#utility.yul\":6601:6618   */\n      add\n        /* \"#utility.yul\":6595:6619   */\n      mload\n        /* \"#utility.yul\":6646:6664   */\n      0xffffffffffffffff\n        /* \"#utility.yul\":6638:6644   */\n      dup2\n        /* \"#utility.yul\":6635:6665   */\n      gt\n        /* \"#utility.yul\":6632:6749   */\n      iszero\n      tag_212\n      jumpi\n        /* \"#utility.yul\":6668:6747   */\n      tag_213\n      tag_102\n      jump\t// in\n    tag_213:\n        /* \"#utility.yul\":6632:6749   */\n    tag_212:\n        /* \"#utility.yul\":6773:6847   */\n      tag_214\n        /* \"#utility.yul\":6839:6846   */\n      dup5\n        /* \"#utility.yul\":6830:6836   */\n      dup3\n        /* \"#utility.yul\":6819:6828   */\n      dup6\n        /* \"#utility.yul\":6815:6837   */\n      add\n        /* \"#utility.yul\":6773:6847   */\n      tag_121\n      jump\t// in\n    tag_214:\n        /* \"#utility.yul\":6763:6847   */\n      swap2\n      pop\n        /* \"#utility.yul\":6566:6857   */\n      pop\n        /* \"#utility.yul\":6340:6864   */\n      swap3\n      swap2\n      pop\n      pop\n      jump\t// out\n        /* \"#utility.yul\":6870:7018   */\n    tag_122:\n        /* \"#utility.yul\":6972:6983   */\n      0x00\n        /* \"#utility.yul\":7009:7012   */\n      dup2\n        /* \"#utility.yul\":6994:7012   */\n      swap1\n      pop\n        /* \"#utility.yul\":6870:7018   */\n      swap3\n      swap2\n      pop\n      pop\n      jump\t// out\n        /* \"#utility.yul\":7024:7414   */\n    tag_123:\n        /* \"#utility.yul\":7130:7133   */\n      0x00\n        /* \"#utility.yul\":7158:7197   */\n      tag_217\n        /* \"#utility.yul\":7191:7196   */\n      dup3\n        /* \"#utility.yul\":7158:7197   */\n      tag_106\n      jump\t// in\n    tag_217:\n        /* \"#utility.yul\":7213:7302   */\n      tag_218\n        /* \"#utility.yul\":7295:7301   */\n      dup2\n        /* \"#utility.yul\":7290:7293   */\n      dup6\n        /* \"#utility.yul\":7213:7302   */\n      tag_122\n      jump\t// in\n    tag_218:\n        /* \"#utility.yul\":7206:7302   */\n      swap4\n      pop\n        /* \"#utility.yul\":7311:7376   */\n      tag_219\n        /* \"#utility.yul\":7369:7375   */\n      dup2\n        /* \"#utility.yul\":7364:7367   */\n      dup6\n        /* \"#utility.yul\":7357:7361   */\n      0x20\n        /* \"#utility.yul\":7350:7355   */\n      dup7\n        /* \"#utility.yul\":7346:7362   */\n      add\n        /* \"#utility.yul\":7311:7376   */\n      tag_108\n      jump\t// in\n    tag_219:\n        /* \"#utility.yul\":7401:7407   */\n      dup1\n        /* \"#utility.yul\":7396:7399   */\n      dup5\n        /* \"#utility.yul\":7392:7408   */\n      add\n        /* \"#utility.yul\":7385:7408   */\n      swap2\n      pop\n        /* \"#utility.yul\":7134:7414   */\n      pop\n        /* \"#utility.yul\":7024:7414   */\n      swap3\n      swap2\n      pop\n      pop\n      jump\t// out\n        /* \"#utility.yul\":7420:7695   */\n    tag_42:\n        /* \"#utility.yul\":7552:7555   */\n      0x00\n        /* \"#utility.yul\":7574:7669   */\n      tag_221\n        /* \"#utility.yul\":7665:7668   */\n      dup3\n        /* \"#utility.yul\":7656:7662   */\n      dup5\n        /* \"#utility.yul\":7574:7669   */\n      tag_123\n      jump\t// in\n    tag_221:\n        /* \"#utility.yul\":7567:7669   */\n      swap2\n      pop\n        /* \"#utility.yul\":7686:7689   */\n      dup2\n        /* \"#utility.yul\":7679:7689   */\n      swap1\n      pop\n        /* \"#utility.yul\":7420:7695   */\n      swap3\n      swap2\n      pop\n      pop\n      jump\t// out\n        /* \"#utility.yul\":7701:7805   */\n    tag_124:\n        /* \"#utility.yul\":7746:7753   */\n      0x00\n        /* \"#utility.yul\":7775:7799   */\n      tag_223\n        /* \"#utility.yul\":7793:7798   */\n      dup3\n        /* \"#utility.yul\":7775:7799   */\n      tag_94\n      jump\t// in\n    tag_223:\n        /* \"#utility.yul\":7764:7799   */\n      swap1\n      pop\n        /* \"#utility.yul\":7701:7805   */\n      swap2\n      swap1\n      pop\n      jump\t// out\n        /* \"#utility.yul\":7811:7949   */\n    tag_125:\n        /* \"#utility.yul\":7892:7924   */\n      tag_225\n        /* \"#utility.yul\":7918:7923   */\n      dup2\n        /* \"#utility.yul\":7892:7924   */\n      tag_124\n      jump\t// in\n    tag_225:\n        /* \"#utility.yul\":7885:7890   */\n      dup2\n        /* \"#utility.yul\":7882:7925   */\n      eq\n        /* \"#utility.yul\":7872:7943   */\n      tag_226\n      jumpi\n        /* \"#utility.yul\":7939:7940   */\n      0x00\n        /* \"#utility.yul\":7936:7937   */\n      dup1\n        /* \"#utility.yul\":7929:7941   */\n      revert\n        /* \"#utility.yul\":7872:7943   */\n    tag_226:\n        /* \"#utility.yul\":7811:7949   */\n      pop\n      jump\t// out\n        /* \"#utility.yul\":7955:8114   */\n    tag_126:\n        /* \"#utility.yul\":8020:8025   */\n      0x00\n        /* \"#utility.yul\":8051:8057   */\n      dup2\n        /* \"#utility.yul\":8045:8058   */\n      mload\n        /* \"#utility.yul\":8036:8058   */\n      swap1\n      pop\n        /* \"#utility.yul\":8067:8108   */\n      tag_228\n        /* \"#utility.yul\":8102:8107   */\n      dup2\n        /* \"#utility.yul\":8067:8108   */\n      tag_125\n      jump\t// in\n    tag_228:\n        /* \"#utility.yul\":7955:8114   */\n      swap3\n      swap2\n      pop\n      pop\n      jump\t// out\n        /* \"#utility.yul\":8120:8487   */\n    tag_55:\n        /* \"#utility.yul\":8198:8204   */\n      0x00\n        /* \"#utility.yul\":8247:8249   */\n      0x20\n        /* \"#utility.yul\":8235:8244   */\n      dup3\n        /* \"#utility.yul\":8226:8233   */\n      dup5\n        /* \"#utility.yul\":8222:8245   */\n      sub\n        /* \"#utility.yul\":8218:8250   */\n      slt\n        /* \"#utility.yul\":8215:8334   */\n      iszero\n      tag_230\n      jumpi\n        /* \"#utility.yul\":8253:8332   */\n      tag_231\n      tag_101\n      jump\t// in\n    tag_231:\n        /* \"#utility.yul\":8215:8334   */\n    tag_230:\n        /* \"#utility.yul\":8373:8374   */\n      0x00\n        /* \"#utility.yul\":8398:8470   */\n      tag_232\n        /* \"#utility.yul\":8462:8469   */\n      dup5\n        /* \"#utility.yul\":8453:8459   */\n      dup3\n        /* \"#utility.yul\":8442:8451   */\n      dup6\n        /* \"#utility.yul\":8438:8460   */\n      add\n        /* \"#utility.yul\":8398:8470   */\n      tag_126\n      jump\t// in\n    tag_232:\n        /* \"#utility.yul\":8388:8470   */\n      swap2\n      pop\n        /* \"#utility.yul\":8344:8480   */\n      pop\n        /* \"#utility.yul\":8120:8487   */\n      swap3\n      swap2\n      pop\n      pop\n      jump\t// out\n        /* \"#utility.yul\":8493:8572   */\n    tag_127:\n        /* \"#utility.yul\":8532:8539   */\n      0x00\n        /* \"#utility.yul\":8561:8566   */\n      dup2\n        /* \"#utility.yul\":8550:8566   */\n      swap1\n      pop\n        /* \"#utility.yul\":8493:8572   */\n      swap2\n      swap1\n      pop\n      jump\t// out\n        /* \"#utility.yul\":8578:8735   */\n    tag_128:\n        /* \"#utility.yul\":8683:8728   */\n      tag_235\n        /* \"#utility.yul\":8703:8727   */\n      tag_236\n        /* \"#utility.yul\":8721:8726   */\n      dup3\n        /* \"#utility.yul\":8703:8727   */\n      tag_111\n      jump\t// in\n    tag_236:\n        /* \"#utility.yul\":8683:8728   */\n      tag_127\n      jump\t// in\n    tag_235:\n        /* \"#utility.yul\":8678:8681   */\n      dup3\n        /* \"#utility.yul\":8671:8729   */\n      mstore\n        /* \"#utility.yul\":8578:8735   */\n      pop\n      pop\n      jump\t// out\n        /* \"#utility.yul\":8741:9138   */\n    tag_61:\n        /* \"#utility.yul\":8881:8884   */\n      0x00\n        /* \"#utility.yul\":8896:8971   */\n      tag_238\n        /* \"#utility.yul\":8967:8970   */\n      dup3\n        /* \"#utility.yul\":8958:8964   */\n      dup6\n        /* \"#utility.yul\":8896:8971   */\n      tag_128\n      jump\t// in\n    tag_238:\n        /* \"#utility.yul\":8996:8998   */\n      0x20\n        /* \"#utility.yul\":8991:8994   */\n      dup3\n        /* \"#utility.yul\":8987:8999   */\n      add\n        /* \"#utility.yul\":8980:8999   */\n      swap2\n      pop\n        /* \"#utility.yul\":9009:9084   */\n      tag_239\n        /* \"#utility.yul\":9080:9083   */\n      dup3\n        /* \"#utility.yul\":9071:9077   */\n      dup5\n        /* \"#utility.yul\":9009:9084   */\n      tag_128\n      jump\t// in\n    tag_239:\n        /* \"#utility.yul\":9109:9111   */\n      0x20\n        /* \"#utility.yul\":9104:9107   */\n      dup3\n        /* \"#utility.yul\":9100:9112   */\n      add\n        /* \"#utility.yul\":9093:9112   */\n      swap2\n      pop\n        /* \"#utility.yul\":9129:9132   */\n      dup2\n        /* \"#utility.yul\":9122:9132   */\n      swap1\n      pop\n        /* \"#utility.yul\":8741:9138   */\n      swap4\n      swap3\n      pop\n      pop\n      pop\n      jump\t// out\n        /* \"#utility.yul\":9144:9221   */\n    tag_129:\n        /* \"#utility.yul\":9181:9188   */\n      0x00\n        /* \"#utility.yul\":9210:9215   */\n      dup2\n        /* \"#utility.yul\":9199:9215   */\n      swap1\n      pop\n        /* \"#utility.yul\":9144:9221   */\n      swap2\n      swap1\n      pop\n      jump\t// out\n        /* \"#utility.yul\":9227:9407   */\n    tag_130:\n        /* \"#utility.yul\":9275:9352   */\n      0x4e487b7100000000000000000000000000000000000000000000000000000000\n        /* \"#utility.yul\":9272:9273   */\n      0x00\n        /* \"#utility.yul\":9265:9353   */\n      mstore\n        /* \"#utility.yul\":9372:9376   */\n      0x11\n        /* \"#utility.yul\":9369:9370   */\n      0x04\n        /* \"#utility.yul\":9362:9377   */\n      mstore\n        /* \"#utility.yul\":9396:9400   */\n      0x24\n        /* \"#utility.yul\":9393:9394   */\n      0x00\n        /* \"#utility.yul\":9386:9401   */\n      revert\n        /* \"#utility.yul\":9413:9604   */\n    tag_75:\n        /* \"#utility.yul\":9453:9456   */\n      0x00\n        /* \"#utility.yul\":9472:9492   */\n      tag_243\n        /* \"#utility.yul\":9490:9491   */\n      dup3\n        /* \"#utility.yul\":9472:9492   */\n      tag_129\n      jump\t// in\n    tag_243:\n        /* \"#utility.yul\":9467:9492   */\n      swap2\n      pop\n        /* \"#utility.yul\":9506:9526   */\n      tag_244\n        /* \"#utility.yul\":9524:9525   */\n      dup4\n        /* \"#utility.yul\":9506:9526   */\n      tag_129\n      jump\t// in\n    tag_244:\n        /* \"#utility.yul\":9501:9526   */\n      swap3\n      pop\n        /* \"#utility.yul\":9549:9550   */\n      dup3\n        /* \"#utility.yul\":9546:9547   */\n      dup3\n        /* \"#utility.yul\":9542:9551   */\n      add\n        /* \"#utility.yul\":9535:9551   */\n      swap1\n      pop\n        /* \"#utility.yul\":9570:9573   */\n      dup1\n        /* \"#utility.yul\":9567:9568   */\n      dup3\n        /* \"#utility.yul\":9564:9574   */\n      gt\n        /* \"#utility.yul\":9561:9597   */\n      iszero\n      tag_245\n      jumpi\n        /* \"#utility.yul\":9577:9595   */\n      tag_246\n      tag_130\n      jump\t// in\n    tag_246:\n        /* \"#utility.yul\":9561:9597   */\n    tag_245:\n        /* \"#utility.yul\":9413:9604   */\n      swap3\n      swap2\n      pop\n      pop\n      jump\t// out\n        /* \"#utility.yul\":9610:9790   */\n    tag_88:\n        /* \"#utility.yul\":9658:9735   */\n      0x4e487b7100000000000000000000000000000000000000000000000000000000\n        /* \"#utility.yul\":9655:9656   */\n      0x00\n        /* \"#utility.yul\":9648:9736   */\n      mstore\n        /* \"#utility.yul\":9755:9759   */\n      0x32\n        /* \"#utility.yul\":9752:9753   */\n      0x04\n        /* \"#utility.yul\":9745:9760   */\n      mstore\n        /* \"#utility.yul\":9779:9783   */\n      0x24\n        /* \"#utility.yul\":9776:9777   */\n      0x00\n        /* \"#utility.yul\":9769:9784   */\n      revert\n        /* \"#utility.yul\":9796:10029   */\n    tag_90:\n        /* \"#utility.yul\":9835:9838   */\n      0x00\n        /* \"#utility.yul\":9858:9882   */\n      tag_249\n        /* \"#utility.yul\":9876:9881   */\n      dup3\n        /* \"#utility.yul\":9858:9882   */\n      tag_129\n      jump\t// in\n    tag_249:\n        /* \"#utility.yul\":9849:9882   */\n      swap2\n      pop\n        /* \"#utility.yul\":9904:9970   */\n      0xffffffffffffffffffffffffffffffffffffffffffffffffffffffffffffffff\n        /* \"#utility.yul\":9897:9902   */\n      dup3\n        /* \"#utility.yul\":9894:9971   */\n      sub\n        /* \"#utility.yul\":9891:9994   */\n      tag_250\n      jumpi\n        /* \"#utility.yul\":9974:9992   */\n      tag_251\n      tag_130\n      jump\t// in\n    tag_251:\n        /* \"#utility.yul\":9891:9994   */\n    tag_250:\n        /* \"#utility.yul\":10021:10022   */\n      0x01\n        /* \"#utility.yul\":10014:10019   */\n      dup3\n        /* \"#utility.yul\":10010:10023   */\n      add\n        /* \"#utility.yul\":10003:10023   */\n      swap1\n      pop\n        /* \"#utility.yul\":9796:10029   */\n      swap2\n      swap1\n      pop\n      jump\t// out\n\n    auxdata: 0xa26469706673582212202460a638ace51ebad5e9fab80e587483f83a654076fb7aa1a907689a28cd3b0164736f6c63430008160033\n}\n",
				"bytecode": {
					"linkReferences": {},
					"object": "60c060405234801561000f575f80fd5b50604051610e5d380380610e5d833981810160405281019061003191906100fe565b8173ffffffffffffffffffffffffffffffffffffffff1660a08173ffffffffffffffffffffffffffffffffffffffff16815250508073ffffffffffffffffffffffffffffffffffffffff1660808173ffffffffffffffffffffffffffffffffffffffff1681525050505061013c565b5f80fd5b5f73ffffffffffffffffffffffffffffffffffffffff82169050919050565b5f6100cd826100a4565b9050919050565b6100dd816100c3565b81146100e7575f80fd5b50565b5f815190506100f8816100d4565b92915050565b5f8060408385031215610114576101136100a0565b5b5f610121858286016100ea565b9250506020610132858286016100ea565b9150509250929050565b60805160a051610ced6101705f395f818160dc01526101a101525f818160b10152818161012601526101690152610ced5ff3fe608060405234801561000f575f80fd5b506004361061003f575f3560e01c80633f15457f1461004357806355ea6c4714610061578063c358133b14610091575b5f80fd5b61004b6100af565b60405161005891906107ca565b60405180910390f35b61007b6004803603810190610076919061082f565b6100d3565b60405161008891906108e4565b60405180910390f35b61009961019f565b6040516100a691906107ca565b60405180910390f35b7f000000000000000000000000000000000000000000000000000000000000000081565b60605f610100837f00000000000000000000000000000000000000000000000000000000000000006101c3565b90505f815114801561015e57505f73ffffffffffffffffffffffffffffffffffffffff167f000000000000000000000000000000000000000000000000000000000000000073ffffffffffffffffffffffffffffffffffffffff1614155b156101955761018d837f00000000000000000000000000000000000000000000000000000000000000006101c3565b91505061019a565b809150505b919050565b7f000000000000000000000000000000000000000000000000000000000000000081565b60605f6101cf84610546565b90505f8373ffffffffffffffffffffffffffffffffffffffff16630178b8bf836040518263ffffffff1660e01b815260040161020b919061091c565b602060405180830381865afa158015610226573d5f803e3d5ffd5b505050506040513d601f19601f8201168201806040525081019061024a9190610949565b90505f73ffffffffffffffffffffffffffffffffffffffff168173ffffffffffffffffffffffffffffffffffffffff16036102975760405180602001604052805f81525092505050610540565b5f8190505f8173ffffffffffffffffffffffffffffffffffffffff1663691f3431856040518263ffffffff1660e01b81526004016102d5919061091c565b5f60405180830381865afa1580156102ef573d5f803e3d5ffd5b505050506040513d5f823e3d601f19601f820116820180604052508101906103179190610a92565b90505f8151148061036f57507f918d5359431a7007dec0d4722530b0726c0e1010a959bd8b871a6a5d6337144a5f1b816040516020016103579190610b13565b60405160208183030381529060405280519060200120145b1561038e5760405180602001604052805f815250945050505050610540565b5f610398826105a1565b90505f8773ffffffffffffffffffffffffffffffffffffffff16630178b8bf836040518263ffffffff1660e01b81526004016103d4919061091c565b602060405180830381865afa1580156103ef573d5f803e3d5ffd5b505050506040513d601f19601f820116820180604052508101906104139190610949565b90505f73ffffffffffffffffffffffffffffffffffffffff168173ffffffffffffffffffffffffffffffffffffffff16036104645760405180602001604052805f8152509650505050505050610540565b5f8190505f8173ffffffffffffffffffffffffffffffffffffffff16633b3b57de856040518263ffffffff1660e01b81526004016104a2919061091c565b602060405180830381865afa1580156104bd573d5f803e3d5ffd5b505050506040513d601f19601f820116820180604052508101906104e19190610b64565b90508a73ffffffffffffffffffffffffffffffffffffffff168173ffffffffffffffffffffffffffffffffffffffff16146105345760405180602001604052805f81525098505050505050505050610540565b84985050505050505050505b92915050565b5f7f91d1777781884d03a6757a803996e38de2a42967fb37eeaca72729271025a9e25f1b610573836105b3565b604051602001610584929190610baf565b604051602081830303815290604052805190602001209050919050565b5f6105ac825f61061a565b9050919050565b5f7f303132333435363738396162636465660000000000000000000000000000000060285b5f81111561060d5760018103905081600f85161a815360108404935060018103905081600f85161a81536010840493506105d8565b5060285f20915050919050565b5f8183511161062d575f801b9050610691565b5f6106388484610697565b905061065b846001838661064c9190610c10565b6106569190610c10565b61061a565b610666858584610726565b604051602001610677929190610baf565b604051602081830303815290604052805190602001209150505b92915050565b5f805b835181846106a89190610c10565b141580156107045750602e60f81b8482856106c39190610c10565b815181106106d4576106d3610c43565b5b602001015160f81c60f81b7effffffffffffffffffffffffffffffffffffffffffffffffffffffffffffff191614155b1561071c57808061071490610c70565b91505061069a565b8091505092915050565b5f835182846107359190610c10565b111561073f575f80fd5b818360208601012090509392505050565b5f73ffffffffffffffffffffffffffffffffffffffff82169050919050565b5f819050919050565b5f61079261078d61078884610750565b61076f565b610750565b9050919050565b5f6107a382610778565b9050919050565b5f6107b482610799565b9050919050565b6107c4816107aa565b82525050565b5f6020820190506107dd5f8301846107bb565b92915050565b5f604051905090565b5f80fd5b5f80fd5b5f6107fe82610750565b9050919050565b61080e816107f4565b8114610818575f80fd5b50565b5f8135905061082981610805565b92915050565b5f60208284031215610844576108436107ec565b5b5f6108518482850161081b565b91505092915050565b5f81519050919050565b5f82825260208201905092915050565b5f5b83811015610891578082015181840152602081019050610876565b5f8484015250505050565b5f601f19601f8301169050919050565b5f6108b68261085a565b6108c08185610864565b93506108d0818560208601610874565b6108d98161089c565b840191505092915050565b5f6020820190508181035f8301526108fc81846108ac565b905092915050565b5f819050919050565b61091681610904565b82525050565b5f60208201905061092f5f83018461090d565b92915050565b5f8151905061094381610805565b92915050565b5f6020828403121561095e5761095d6107ec565b5b5f61096b84828501610935565b91505092915050565b5f80fd5b5f80fd5b7f4e487b71000000000000000000000000000000000000000000000000000000005f52604160045260245ffd5b6109b28261089c565b810181811067ffffffffffffffff821117156109d1576109d061097c565b5b80604052505050565b5f6109e36107e3565b90506109ef82826109a9565b919050565b5f67ffffffffffffffff821115610a0e57610a0d61097c565b5b610a178261089c565b9050602081019050919050565b5f610a36610a31846109f4565b6109da565b905082815260208101848484011115610a5257610a51610978565b5b610a5d848285610874565b509392505050565b5f82601f830112610a7957610a78610974565b5b8151610a89848260208601610a24565b91505092915050565b5f60208284031215610aa757610aa66107ec565b5b5f82015167ffffffffffffffff811115610ac457610ac36107f0565b5b610ad084828501610a65565b91505092915050565b5f81905092915050565b5f610aed8261085a565b610af78185610ad9565b9350610b07818560208601610874565b80840191505092915050565b5f610b1e8284610ae3565b915081905092915050565b5f610b3382610750565b9050919050565b610b4381610b29565b8114610b4d575f80fd5b50565b5f81519050610b5e81610b3a565b92915050565b5f60208284031215610b7957610b786107ec565b5b5f610b8684828501610b50565b91505092915050565b5f819050919050565b610ba9610ba482610904565b610b8f565b82525050565b5f610bba8285610b98565b602082019150610bca8284610b98565b6020820191508190509392505050565b5f819050919050565b7f4e487b71000000000000000000000000000000000000000000000000000000005f52601160045260245ffd5b5f610c1a82610bda565b9150610c2583610bda565b9250828201905080821115610c3d57610c3c610be3565b5b92915050565b7f4e487b71000000000000000000000000000000000000000000000000000000005f52603260045260245ffd5b5f610c7a82610bda565b91507fffffffffffffffffffffffffffffffffffffffffffffffffffffffffffffffff8203610cac57610cab610be3565b5b60018201905091905056fea26469706673582212202460a638ace51ebad5e9fab80e587483f83a654076fb7aa1a907689a28cd3b0164736f6c63430008160033",
					"opcodes": "PUSH1 0xC0 PUSH1 0x40 MSTORE CALLVALUE DUP1 ISZERO PUSH2 0xF JUMPI PUSH0 DUP1 REVERT JUMPDEST POP PUSH1 0x40 MLOAD PUSH2 0xE5D CODESIZE SUB DUP1 PUSH2 0xE5D DUP4 CODECOPY DUP2 DUP2 ADD PUSH1 0x40 MSTORE DUP2 ADD SWAP1 PUSH2 0x31 SWAP2 SWAP1 PUSH2 0xFE JUMP JUMPDEST DUP2 PUSH20 0xFFFFFFFFFFFFFFFFFFFFFFFFFFFFFFFFFFFFFFFF AND PUSH1 0xA0 DUP2 PUSH20 0xFFFFFFFFFFFFFFFFFFFFFFFFFFFFFFFFFFFFFFFF AND DUP2 MSTORE POP POP DUP1 PUSH20 0xFFFFFFFFFFFFFFFFFFFFFFFFFFFFFFFFFFFFFFFF AND PUSH1 0x80 DUP2 PUSH20 0xFFFFFFFFFFFFFFFFFFFFFFFFFFFFFFFFFFFFFFFF AND DUP2 MSTORE POP POP POP POP PUSH2 0x13C JUMP JUMPDEST PUSH0 DUP1 REVERT JUMPDEST PUSH0 PUSH20 0xFFFFFFFFFFFFFFFFFFFFFFFFFFFFFFFFFFFFFFFF DUP3 AND SWAP1 POP SWAP2 SWAP1 POP JUMP JUMPDEST PUSH0 PUSH2 0xCD DUP3 PUSH2 0xA4 JUMP JUMPDEST SWAP1 POP SWAP2 SWAP1 POP JUMP JUMPDEST PUSH2 0xDD DUP2 PUSH2 0xC3 JUMP JUMPDEST DUP2 EQ PUSH2 0xE7 JUMPI PUSH0 DUP1 REVERT JUMPDEST POP JUMP JUMPDEST PUSH0 DUP2 MLOAD SWAP1 POP PUSH2 0xF8 DUP2 PUSH2 0xD4 JUMP JUMPDEST SWAP3 SWAP2 POP POP JUMP JUMPDEST PUSH0 DUP1 PUSH1 0x40 DUP4 DUP6 SUB SLT ISZERO PUSH2 0x114 JUMPI PUSH2 0x113 PUSH2 0xA0 JUMP JUMPDEST JUMPDEST PUSH0 PUSH2 0x121 DUP6 DUP3 DUP7 ADD PUSH2 0xEA JUMP JUMPDEST SWAP3 POP POP PUSH1 0x20 PUSH2 0x132 DUP6 DUP3 DUP7 ADD PUSH2 0xEA JUMP JUMPDEST SWAP2 POP POP SWAP3 POP SWAP3 SWAP1 POP JUMP JUMPDEST PUSH1 0x80 MLOAD PUSH1 0xA0 MLOAD PUSH2 0xCED PUSH2 0x170 PUSH0 CODECOPY PUSH0 DUP2 DUP2 PUSH1 0xDC ADD MSTORE PUSH2 0x1A1 ADD MSTORE PUSH0 DUP2 DUP2 PUSH1 0xB1 ADD MSTORE DUP2 DUP2 PUSH2 0x126 ADD MSTORE PUSH2 0x169 ADD MSTORE PUSH2 0xCED PUSH0 RETURN INVALID PUSH1 0x80 PUSH1 0x40 MSTORE CALLVALUE DUP1 ISZERO PUSH2 0xF JUMPI PUSH0 DUP1 REVERT JUMPDEST POP PUSH1 0x4 CALLDATASIZE LT PUSH2 0x3F JUMPI PUSH0 CALLDATALOAD PUSH1 0xE0 SHR DUP1 PUSH4 0x3F15457F EQ PUSH2 0x43 JUMPI DUP1 PUSH4 0x55EA6C47 EQ PUSH2 0x61 JUMPI DUP1 PUSH4 0xC358133B EQ PUSH2 0x91 JUMPI JUMPDEST PUSH0 DUP1 REVERT JUMPDEST PUSH2 0x4B PUSH2 0xAF JUMP JUMPDEST PUSH1 0x40 MLOAD PUSH2 0x58 SWAP2 SWAP1 PUSH2 0x7CA JUMP JUMPDEST PUSH1 0x40 MLOAD DUP1 SWAP2 SUB SWAP1 RETURN JUMPDEST PUSH2 0x7B PUSH1 0x4 DUP1 CALLDATASIZE SUB DUP2 ADD SWAP1 PUSH2 0x76 SWAP2 SWAP1 PUSH2 0x82F JUMP JUMPDEST PUSH2 0xD3 JUMP JUMPDEST PUSH1 0x40 MLOAD PUSH2 0x88 SWAP2 SWAP1 PUSH2 0x8E4 JUMP JUMPDEST PUSH1 0x40 MLOAD DUP1 SWAP2 SUB SWAP1 RETURN JUMPDEST PUSH2 0x99 PUSH2 0x19F JUMP JUMPDEST PUSH1 0x40 MLOAD PUSH2 0xA6 SWAP2 SWAP1 PUSH2 0x7CA JUMP JUMPDEST PUSH1 0x40 MLOAD DUP1 SWAP2 SUB SWAP1 RETURN JUMPDEST PUSH32 0x0 DUP2 JUMP JUMPDEST PUSH1 0x60 PUSH0 PUSH2 0x100 DUP4 PUSH32 0x0 PUSH2 0x1C3 JUMP JUMPDEST SWAP1 POP PUSH0 DUP2 MLOAD EQ DUP1 ISZERO PUSH2 0x15E JUMPI POP PUSH0 PUSH20 0xFFFFFFFFFFFFFFFFFFFFFFFFFFFFFFFFFFFFFFFF AND PUSH32 0x0 PUSH20 0xFFFFFFFFFFFFFFFFFFFFFFFFFFFFFFFFFFFFFFFF AND EQ ISZERO JUMPDEST ISZERO PUSH2 0x195 JUMPI PUSH2 0x18D DUP4 PUSH32 0x0 PUSH2 0x1C3 JUMP JUMPDEST SWAP2 POP POP PUSH2 0x19A JUMP JUMPDEST DUP1 SWAP2 POP POP JUMPDEST SWAP2 SWAP1 POP JUMP JUMPDEST PUSH32 0x0 DUP2 JUMP JUMPDEST PUSH1 0x60 PUSH0 PUSH2 0x1CF DUP5 PUSH2 0x546 JUMP JUMPDEST SWAP1 POP PUSH0 DUP4 PUSH20 0xFFFFFFFFFFFFFFFFFFFFFFFFFFFFFFFFFFFFFFFF AND PUSH4 0x178B8BF DUP4 PUSH1 0x40 MLOAD DUP3 PUSH4 0xFFFFFFFF AND PUSH1 0xE0 SHL DUP2 MSTORE PUSH1 0x4 ADD PUSH2 0x20B SWAP2 SWAP1 PUSH2 0x91C JUMP JUMPDEST PUSH1 0x20 PUSH1 0x40 MLOAD DUP1 DUP4 SUB DUP2 DUP7 GAS STATICCALL ISZERO DUP1 ISZERO PUSH2 0x226 JUMPI RETURNDATASIZE PUSH0 DUP1 RETURNDATACOPY RETURNDATASIZE PUSH0 REVERT JUMPDEST POP POP POP POP PUSH1 0x40 MLOAD RETURNDATASIZE PUSH1 0x1F NOT PUSH1 0x1F DUP3 ADD AND DUP3 ADD DUP1 PUSH1 0x40 MSTORE POP DUP2 ADD SWAP1 PUSH2 0x24A SWAP2 SWAP1 PUSH2 0x949 JUMP JUMPDEST SWAP1 POP PUSH0 PUSH20 0xFFFFFFFFFFFFFFFFFFFFFFFFFFFFFFFFFFFFFFFF AND DUP2 PUSH20 0xFFFFFFFFFFFFFFFFFFFFFFFFFFFFFFFFFFFFFFFF AND SUB PUSH2 0x297 JUMPI PUSH1 0x40 MLOAD DUP1 PUSH1 0x20 ADD PUSH1 0x40 MSTORE DUP1 PUSH0 DUP2 MSTORE POP SWAP3 POP POP POP PUSH2 0x540 JUMP JUMPDEST PUSH0 DUP2 SWAP1 POP PUSH0 DUP2 PUSH20 0xFFFFFFFFFFFFFFFFFFFFFFFFFFFFFFFFFFFFFFFF AND PUSH4 0x691F3431 DUP6 PUSH1 0x40 MLOAD DUP3 PUSH4 0xFFFFFFFF AND PUSH1 0xE0 SHL DUP2 MSTORE PUSH1 0x4 ADD PUSH2 0x2D5 SWAP2 SWAP1 PUSH2 0x91C JUMP JUMPDEST PUSH0 PUSH1 0x40 MLOAD DUP1 DUP4 SUB DUP2 DUP7 GAS STATICCALL ISZERO DUP1 ISZERO PUSH2 0x2EF JUMPI RETURNDATASIZE PUSH0 DUP1 RETURNDATACOPY RETURNDATASIZE PUSH0 REVERT JUMPDEST POP POP POP POP PUSH1 0x40 MLOAD RETURNDATASIZE PUSH0 DUP3 RETURNDATACOPY RETURNDATASIZE PUSH1 0x1F NOT PUSH1 0x1F DUP3 ADD AND DUP3 ADD DUP1 PUSH1 0x40 MSTORE POP DUP2 ADD SWAP1 PUSH2 0x317 SWAP2 SWAP1 PUSH2 0xA92 JUMP JUMPDEST SWAP1 POP PUSH0 DUP2 MLOAD EQ DUP1 PUSH2 0x36F JUMPI POP PUSH32 0x918D5359431A7007DEC0D4722530B0726C0E1010A959BD8B871A6A5D6337144A PUSH0 SHL DUP2 PUSH1 0x40 MLOAD PUSH1 0x20 ADD PUSH2 0x357 SWAP2 SWAP1 PUSH2 0xB13 JUMP JUMPDEST PUSH1 0x40 MLOAD PUSH1 0x20 DUP2 DUP4 SUB SUB DUP2 MSTORE SWAP1 PUSH1 0x40 MSTORE DUP1 MLOAD SWAP1 PUSH1 0x20 ADD KECCAK256 EQ JUMPDEST ISZERO PUSH2 0x38E JUMPI PUSH1 0x40 MLOAD DUP1 PUSH1 0x20 ADD PUSH1 0x40 MSTORE DUP1 PUSH0 DUP2 MSTORE POP SWAP5 POP POP POP POP POP PUSH2 0x540 JUMP JUMPDEST PUSH0 PUSH2 0x398 DUP3 PUSH2 0x5A1 JUMP JUMPDEST SWAP1 POP PUSH0 DUP8 PUSH20 0xFFFFFFFFFFFFFFFFFFFFFFFFFFFFFFFFFFFFFFFF AND PUSH4 0x178B8BF DUP4 PUSH1 0x40 MLOAD DUP3 PUSH4 0xFFFFFFFF AND PUSH1 0xE0 SHL DUP2 MSTORE PUSH1 0x4 ADD PUSH2 0x3D4 SWAP2 SWAP1 PUSH2 0x91C JUMP JUMPDEST PUSH1 0x20 PUSH1 0x40 MLOAD DUP1 DUP4 SUB DUP2 DUP7 GAS STATICCALL ISZERO DUP1 ISZERO PUSH2 0x3EF JUMPI RETURNDATASIZE PUSH0 DUP1 RETURNDATACOPY RETURNDATASIZE PUSH0 REVERT JUMPDEST POP POP POP POP PUSH1 0x40 MLOAD RETURNDATASIZE PUSH1 0x1F NOT PUSH1 0x1F DUP3 ADD AND DUP3 ADD DUP1 PUSH1 0x40 MSTORE POP DUP2 ADD SWAP1 PUSH2 0x413 SWAP2 SWAP1 PUSH2 0x949 JUMP JUMPDEST SWAP1 POP PUSH0 PUSH20 0xFFFFFFFFFFFFFFFFFFFFFFFFFFFFFFFFFFFFFFFF AND DUP2 PUSH20 0xFFFFFFFFFFFFFFFFFFFFFFFFFFFFFFFFFFFFFFFF AND SUB PUSH2 0x464 JUMPI PUSH1 0x40 MLOAD DUP1 PUSH1 0x20 ADD PUSH1 0x40 MSTORE DUP1 PUSH0 DUP2 MSTORE POP SWAP7 POP POP POP POP POP POP POP PUSH2 0x540 JUMP JUMPDEST PUSH0 DUP2 SWAP1 POP PUSH0 DUP2 PUSH20 0xFFFFFFFFFFFFFFFFFFFFFFFFFFFFFFFFFFFFFFFF AND PUSH4 0x3B3B57DE DUP6 PUSH1 0x40 MLOAD DUP3 PUSH4 0xFFFFFFFF AND PUSH1 0xE0 SHL DUP2 MSTORE PUSH1 0x4 ADD PUSH2 0x4A2 SWAP2 SWAP1 PUSH2 0x91C JUMP JUMPDEST PUSH1 0x20 PUSH1 0x40 MLOAD DUP1 DUP4 SUB DUP2 DUP7 GAS STATICCALL ISZERO DUP1 ISZERO PUSH2 0x4BD JUMPI RETURNDATASIZE PUSH0 DUP1 RETURNDATACOPY RETURNDATASIZE PUSH0 REVERT JUMPDEST POP POP POP POP PUSH1 0x40 MLOAD RETURNDATASIZE PUSH1 0x1F NOT PUSH1 0x1F DUP3 ADD AND DUP3 ADD DUP1 PUSH1 0x40 MSTORE POP DUP2 ADD SWAP1 PUSH2 0x4E1 SWAP2 SWAP1 PUSH2 0xB64 JUMP JUMPDEST SWAP1 POP DUP11 PUSH20 0xFFFFFFFFFFFFFFFFFFFFFFFFFFFFFFFFFFFFFFFF AND DUP2 PUSH20 0xFFFFFFFFFFFFFFFFFFFFFFFFFFFFFFFFFFFFFFFF AND EQ PUSH2 0x534 JUMPI PUSH1 0x40 MLOAD DUP1 PUSH1 0x20 ADD PUSH1 0x40 MSTORE DUP1 PUSH0 DUP2 MSTORE POP SWAP9 POP POP POP POP POP POP POP POP POP PUSH2 0x540 JUMP JUMPDEST DUP5 SWAP9 POP POP POP POP POP POP POP POP POP JUMPDEST SWAP3 SWAP2 POP POP JUMP JUMPDEST PUSH0 PUSH32 0x91D1777781884D03A6757A803996E38DE2A42967FB37EEACA72729271025A9E2 PUSH0 SHL PUSH2 0x573 DUP4 PUSH2 0x5B3 JUMP JUMPDEST PUSH1 0x40 MLOAD PUSH1 0x20 ADD PUSH2 0x584 SWAP3 SWAP2 SWAP1 PUSH2 0xBAF JUMP JUMPDEST PUSH1 0x40 MLOAD PUSH1 0x20 DUP2 DUP4 SUB SUB DUP2 MSTORE SWAP1 PUSH1 0x40 MSTORE DUP1 MLOAD SWAP1 PUSH1 0x20 ADD KECCAK256 SWAP1 POP SWAP2 SWAP1 POP JUMP JUMPDEST PUSH0 PUSH2 0x5AC DUP3 PUSH0 PUSH2 0x61A JUMP JUMPDEST SWAP1 POP SWAP2 SWAP1 POP JUMP JUMPDEST PUSH0 PUSH32 0x3031323334353637383961626364656600000000000000000000000000000000 PUSH1 0x28 JUMPDEST PUSH0 DUP2 GT ISZERO PUSH2 0x60D JUMPI PUSH1 0x1 DUP2 SUB SWAP1 POP DUP2 PUSH1 0xF DUP6 AND BYTE DUP2 MSTORE8 PUSH1 0x10 DUP5 DIV SWAP4 POP PUSH1 0x1 DUP2 SUB SWAP1 POP DUP2 PUSH1 0xF DUP6 AND BYTE DUP2 MSTORE8 PUSH1 0x10 DUP5 DIV SWAP4 POP PUSH2 0x5D8 JUMP JUMPDEST POP PUSH1 0x28 PUSH0 KECCAK256 SWAP2 POP POP SWAP2 SWAP1 POP JUMP JUMPDEST PUSH0 DUP2 DUP4 MLOAD GT PUSH2 0x62D JUMPI PUSH0 DUP1 SHL SWAP1 POP PUSH2 0x691 JUMP JUMPDEST PUSH0 PUSH2 0x638 DUP5 DUP5 PUSH2 0x697 JUMP JUMPDEST SWAP1 POP PUSH2 0x65B DUP5 PUSH1 0x1 DUP4 DUP7 PUSH2 0x64C SWAP2 SWAP1 PUSH2 0xC10 JUMP JUMPDEST PUSH2 0x656 SWAP2 SWAP1 PUSH2 0xC10 JUMP JUMPDEST PUSH2 0x61A JUMP JUMPDEST PUSH2 0x666 DUP6 DUP6 DUP5 PUSH2 0x726 JUMP JUMPDEST PUSH1 0x40 MLOAD PUSH1 0x20 ADD PUSH2 0x677 SWAP3 SWAP2 SWAP1 PUSH2 0xBAF JUMP JUMPDEST PUSH1 0x40 MLOAD PUSH1 0x20 DUP2 DUP4 SUB SUB DUP2 MSTORE SWAP1 PUSH1 0x40 MSTORE DUP1 MLOAD SWAP1 PUSH1 0x20 ADD KECCAK256 SWAP2 POP POP JUMPDEST SWAP3 SWAP2 POP POP JUMP JUMPDEST PUSH0 DUP1 JUMPDEST DUP4 MLOAD DUP2 DUP5 PUSH2 0x6A8 SWAP2 SWAP1 PUSH2 0xC10 JUMP JUMPDEST EQ ISZERO DUP1 ISZERO PUSH2 0x704 JUMPI POP PUSH1 0x2E PUSH1 0xF8 SHL DUP5 DUP3 DUP6 PUSH2 0x6C3 SWAP2 SWAP1 PUSH2 0xC10 JUMP JUMPDEST DUP2 MLOAD DUP2 LT PUSH2 0x6D4 JUMPI PUSH2 0x6D3 PUSH2 0xC43 JUMP JUMPDEST JUMPDEST PUSH1 0x20 ADD ADD MLOAD PUSH1 0xF8 SHR PUSH1 0xF8 SHL PUSH31 0xFFFFFFFFFFFFFFFFFFFFFFFFFFFFFFFFFFFFFFFFFFFFFFFFFFFFFFFFFFFFFF NOT AND EQ ISZERO JUMPDEST ISZERO PUSH2 0x71C JUMPI DUP1 DUP1 PUSH2 0x714 SWAP1 PUSH2 0xC70 JUMP JUMPDEST SWAP2 POP POP PUSH2 0x69A JUMP JUMPDEST DUP1 SWAP2 POP POP SWAP3 SWAP2 POP POP JUMP JUMPDEST PUSH0 DUP4 MLOAD DUP3 DUP5 PUSH2 0x735 SWAP2 SWAP1 PUSH2 0xC10 JUMP JUMPDEST GT ISZERO PUSH2 0x73F JUMPI PUSH0 DUP1 REVERT JUMPDEST DUP2 DUP4 PUSH1 0x20 DUP7 ADD ADD KECCAK256 SWAP1 POP SWAP4 SWAP3 POP POP POP JUMP JUMPDEST PUSH0 PUSH20 0xFFFFFFFFFFFFFFFFFFFFFFFFFFFFFFFFFFFFFFFF DUP3 AND SWAP1 POP SWAP2 SWAP1 POP JUMP JUMPDEST PUSH0 DUP2 SWAP1 POP SWAP2 SWAP1 POP JUMP JUMPDEST PUSH0 PUSH2 0x792 PUSH2 0x78D PUSH2 0x788 DUP5 PUSH2 0x750 JUMP JUMPDEST PUSH2 0x76F JUMP JUMPDEST PUSH2 0x750 JUMP JUMPDEST SWAP1 POP SWAP2 SWAP1 POP JUMP JUMPDEST PUSH0 PUSH2 0x7A3 DUP3 PUSH2 0x778 JUMP JUMPDEST SWAP1 POP SWAP2 SWAP1 POP JUMP JUMPDEST PUSH0 PUSH2 0x7B4 DUP3 PUSH2 0x799 JUMP JUMPDEST SWAP1 POP SWAP2 SWAP1 POP JUMP JUMPDEST PUSH2 0x7C4 DUP2 PUSH2 0x7AA JUMP JUMPDEST DUP3 MSTORE POP POP JUMP JUMPDEST PUSH0 PUSH1 0x20 DUP3 ADD SWAP1 POP PUSH2 0x7DD PUSH0 DUP4 ADD DUP5 PUSH2 0x7BB JUMP JUMPDEST SWAP3 SWAP2 POP POP JUMP JUMPDEST PUSH0 PUSH1 0x40 MLOAD SWAP1 POP SWAP1 JUMP JUMPDEST PUSH0 DUP1 REVERT JUMPDEST PUSH0 DUP1 REVERT JUMPDEST PUSH0 PUSH2 0x7FE DUP3 PUSH2 0x750 JUMP JUMPDEST SWAP1 POP SWAP2 SWAP1 POP JUMP JUMPDEST PUSH2 0x80E DUP2 PUSH2 0x7F4 JUMP JUMPDEST DUP2 EQ PUSH2 0x818 JUMPI PUSH0 DUP1 REVERT JUMPDEST POP JUMP JUMPDEST PUSH0 DUP2 CALLDATALOAD SWAP1 POP PUSH2 0x829 DUP2 PUSH2 0x805 JUMP JUMPDEST SWAP3 SWAP2 POP POP JUMP JUMPDEST PUSH0 PUSH1 0x20 DUP3 DUP5 SUB SLT ISZERO PUSH2 0x844 JUMPI PUSH2 0x843 PUSH2 0x7EC JUMP JUMPDEST JUMPDEST PUSH0 PUSH2 0x851 DUP5 DUP3 DUP6 ADD PUSH2 0x81B JUMP JUMPDEST SWAP2 POP POP SWAP3 SWAP2 POP POP JUMP JUMPDEST PUSH0 DUP2 MLOAD SWAP1 POP SWAP2 SWAP1 POP JUMP JUMPDEST PUSH0 DUP3 DUP3 MSTORE PUSH1 0x20 DUP3 ADD SWAP1 POP SWAP3 SWAP2 POP POP JUMP JUMPDEST PUSH0 JUMPDEST DUP4 DUP2 LT ISZERO PUSH2 0x891 JUMPI DUP1 DUP3 ADD MLOAD DUP2 DUP5 ADD MSTORE PUSH1 0x20 DUP2 ADD SWAP1 POP PUSH2 0x876 JUMP JUMPDEST PUSH0 DUP5 DUP5 ADD MSTORE POP POP POP POP JUMP JUMPDEST PUSH0 PUSH1 0x1F NOT PUSH1 0x1F DUP4 ADD AND SWAP1 POP SWAP2 SWAP1 POP JUMP JUMPDEST PUSH0 PUSH2 0x8B6 DUP3 PUSH2 0x85A JUMP JUMPDEST PUSH2 0x8C0 DUP2 DUP6 PUSH2 0x864 JUMP JUMPDEST SWAP4 POP PUSH2 0x8D0 DUP2 DUP6 PUSH1 0x20 DUP7 ADD PUSH2 0x874 JUMP JUMPDEST PUSH2 0x8D9 DUP2 PUSH2 0x89C JUMP JUMPDEST DUP5 ADD SWAP2 POP POP SWAP3 SWAP2 POP POP JUMP JUMPDEST PUSH0 PUSH1 0x20 DUP3 ADD SWAP1 POP DUP2 DUP2 SUB PUSH0 DUP4 ADD MSTORE PUSH2 0x8FC DUP2 DUP5 PUSH2 0x8AC JUMP JUMPDEST SWAP1 POP SWAP3 SWAP2 POP POP JUMP JUMPDEST PUSH0 DUP2 SWAP1 POP SWAP2 SWAP1 POP JUMP JUMPDEST PUSH2 0x916 DUP2 PUSH2 0x904 JUMP JUMPDEST DUP3 MSTORE POP POP JUMP JUMPDEST PUSH0 PUSH1 0x20 DUP3 ADD SWAP1 POP PUSH2 0x92F PUSH0 DUP4 ADD DUP5 PUSH2 0x90D JUMP JUMPDEST SWAP3 SWAP2 POP POP JUMP JUMPDEST PUSH0 DUP2 MLOAD SWAP1 POP PUSH2 0x943 DUP2 PUSH2 0x805 JUMP JUMPDEST SWAP3 SWAP2 POP POP JUMP JUMPDEST PUSH0 PUSH1 0x20 DUP3 DUP5 SUB SLT ISZERO PUSH2 0x95E JUMPI PUSH2 0x95D PUSH2 0x7EC JUMP JUMPDEST JUMPDEST PUSH0 PUSH2 0x96B DUP5 DUP3 DUP6 ADD PUSH2 0x935 JUMP JUMPDEST SWAP2 POP POP SWAP3 SWAP2 POP POP JUMP JUMPDEST PUSH0 DUP1 REVERT JUMPDEST PUSH0 DUP1 REVERT JUMPDEST PUSH32 0x4E487B7100000000000000000000000000000000000000000000000000000000 PUSH0 MSTORE PUSH1 0x41 PUSH1 0x4 MSTORE PUSH1 0x24 PUSH0 REVERT JUMPDEST PUSH2 0x9B2 DUP3 PUSH2 0x89C JUMP JUMPDEST DUP2 ADD DUP2 DUP2 LT PUSH8 0xFFFFFFFFFFFFFFFF DUP3 GT OR ISZERO PUSH2 0x9D1 JUMPI PUSH2 0x9D0 PUSH2 0x97C JUMP JUMPDEST JUMPDEST DUP1 PUSH1 0x40 MSTORE POP POP POP JUMP JUMPDEST PUSH0 PUSH2 0x9E3 PUSH2 0x7E3 JUMP JUMPDEST SWAP1 POP PUSH2 0x9EF DUP3 DUP3 PUSH2 0x9A9 JUMP JUMPDEST SWAP2 SWAP1 POP JUMP JUMPDEST PUSH0 PUSH8 0xFFFFFFFFFFFFFFFF DUP3 GT ISZERO PUSH2 0xA0E JUMPI PUSH2 0xA0D PUSH2 0x97C JUMP JUMPDEST JUMPDEST PUSH2 0xA17 DUP3 PUSH2 0x89C JUMP JUMPDEST SWAP1 POP PUSH1 0x20 DUP2 ADD SWAP1 POP SWAP2 SWAP1 POP JUMP JUMPDEST PUSH0 PUSH2 0xA36 PUSH2 0xA31 DUP5 PUSH2 0x9F4 JUMP JUMPDEST PUSH2 0x9DA JUMP JUMPDEST SWAP1 POP DUP3 DUP2 MSTORE PUSH1 0x20 DUP2 ADD DUP5 DUP5 DUP5 ADD GT ISZERO PUSH2 0xA52 JUMPI PUSH2 0xA51 PUSH2 0x978 JUMP JUMPDEST JUMPDEST PUSH2 0xA5D DUP5 DUP3 DUP6 PUSH2 0x874 JUMP JUMPDEST POP SWAP4 SWAP3 POP POP POP JUMP JUMPDEST PUSH0 DUP3 PUSH1 0x1F DUP4 ADD SLT PUSH2 0xA79 JUMPI PUSH2 0xA78 PUSH2 0x974 JUMP JUMPDEST JUMPDEST DUP2 MLOAD PUSH2 0xA89 DUP5 DUP3 PUSH1 0x20 DUP7 ADD PUSH2 0xA24 JUMP JUMPDEST SWAP2 POP POP SWAP3 SWAP2 POP POP JUMP JUMPDEST PUSH0 PUSH1 0x20 DUP3 DUP5 SUB SLT ISZERO PUSH2 0xAA7 JUMPI PUSH2 0xAA6 PUSH2 0x7EC JUMP JUMPDEST JUMPDEST PUSH0 DUP3 ADD MLOAD PUSH8 0xFFFFFFFFFFFFFFFF DUP2 GT ISZERO PUSH2 0xAC4 JUMPI PUSH2 0xAC3 PUSH2 0x7F0 JUMP JUMPDEST JUMPDEST PUSH2 0xAD0 DUP5 DUP3 DUP6 ADD PUSH2 0xA65 JUMP JUMPDEST SWAP2 POP POP SWAP3 SWAP2 POP POP JUMP JUMPDEST PUSH0 DUP2 SWAP1 POP SWAP3 SWAP2 POP POP JUMP JUMPDEST PUSH0 PUSH2 0xAED DUP3 PUSH2 0x85A JUMP JUMPDEST PUSH2 0xAF7 DUP2 DUP6 PUSH2 0xAD9 JUMP JUMPDEST SWAP4 POP PUSH2 0xB07 DUP2 DUP6 PUSH1 0x20 DUP7 ADD PUSH2 0x874 JUMP JUMPDEST DUP1 DUP5 ADD SWAP2 POP POP SWAP3 SWAP2 POP POP JUMP JUMPDEST PUSH0 PUSH2 0xB1E DUP3 DUP5 PUSH2 0xAE3 JUMP JUMPDEST SWAP2 POP DUP2 SWAP1 POP SWAP3 SWAP2 POP POP JUMP JUMPDEST PUSH0 PUSH2 0xB33 DUP3 PUSH2 0x750 JUMP JUMPDEST SWAP1 POP SWAP2 SWAP1 POP JUMP JUMPDEST PUSH2 0xB43 DUP2 PUSH2 0xB29 JUMP JUMPDEST DUP2 EQ PUSH2 0xB4D JUMPI PUSH0 DUP1 REVERT JUMPDEST POP JUMP JUMPDEST PUSH0 DUP2 MLOAD SWAP1 POP PUSH2 0xB5E DUP2 PUSH2 0xB3A JUMP JUMPDEST SWAP3 SWAP2 POP POP JUMP JUMPDEST PUSH0 PUSH1 0x20 DUP3 DUP5 SUB SLT ISZERO PUSH2 0xB79 JUMPI PUSH2 0xB78 PUSH2 0x7EC JUMP JUMPDEST JUMPDEST PUSH0 PUSH2 0xB86 DUP5 DUP3 DUP6 ADD PUSH2 0xB50 JUMP JUMPDEST SWAP2 POP POP SWAP3 SWAP2 POP POP JUMP JUMPDEST PUSH0 DUP2 SWAP1 POP SWAP2 SWAP1 POP JUMP JUMPDEST PUSH2 0xBA9 PUSH2 0xBA4 DUP3 PUSH2 0x904 JUMP JUMPDEST PUSH2 0xB8F JUMP JUMPDEST DUP3 MSTORE POP POP JUMP JUMPDEST PUSH0 PUSH2 0xBBA DUP3 DUP6 PUSH2 0xB98 JUMP JUMPDEST PUSH1 0x20 DUP3 ADD SWAP2 POP PUSH2 0xBCA DUP3 DUP5 PUSH2 0xB98 JUMP JUMPDEST PUSH1 0x20 DUP3 ADD SWAP2 POP DUP2 SWAP1 POP SWAP4 SWAP3 POP POP POP JUMP JUMPDEST PUSH0 DUP2 SWAP1 POP SWAP2 SWAP1 POP JUMP JUMPDEST PUSH32 0x4E487B7100000000000000000000000000000000000000000000000000000000 PUSH0 MSTORE PUSH1 0x11 PUSH1 0x4 MSTORE PUSH1 0x24 PUSH0 REVERT JUMPDEST PUSH0 PUSH2 0xC1A DUP3 PUSH2 0xBDA JUMP JUMPDEST SWAP2 POP PUSH2 0xC25 DUP4 PUSH2 0xBDA JUMP JUMPDEST SWAP3 POP DUP3 DUP3 ADD SWAP1 POP DUP1 DUP3 GT ISZERO PUSH2 0xC3D JUMPI PUSH2 0xC3C PUSH2 0xBE3 JUMP JUMPDEST JUMPDEST SWAP3 SWAP2 POP POP JUMP JUMPDEST PUSH32 0x4E487B7100000000000000000000000000000000000000000000000000000000 PUSH0 MSTORE PUSH1 0x32 PUSH1 0x4 MSTORE PUSH1 0x24 PUSH0 REVERT JUMPDEST PUSH0 PUSH2 0xC7A DUP3 PUSH2 0xBDA JUMP JUMPDEST SWAP2 POP PUSH32 0xFFFFFFFFFFFFFFFFFFFFFFFFFFFFFFFFFFFFFFFFFFFFFFFFFFFFFFFFFFFFFFFF DUP3 SUB PUSH2 0xCAC JUMPI PUSH2 0xCAB PUSH2 0xBE3 JUMP JUMPDEST JUMPDEST PUSH1 0x1 DUP3 ADD SWAP1 POP SWAP2 SWAP1 POP JUMP INVALID LOG2 PUSH5 0x6970667358 0x22 SLT KECCAK256 0x24 PUSH1 0xA6 CODESIZE 0xAC 0xE5 0x1E 0xBA 0xD5 0xE9 STATICCALL 0xB8 0xE PC PUSH21 0x83F83A654076FB7AA1A907689A28CD3B0164736F6C PUSH4 0x43000816 STOP CALLER "
				},
				"gasEstimates": {
					"creation": {
						"codeDepositCost": "661800",
						"executionCost": "infinite",
						"totalCost": "infinite"
					},
					"external": {
						"ens()": "infinite",
						"nns()": "infinite",
						"resolve(address)": "infinite"
					},
					"internal": {
						"_resolve(address,contract ENS)": "infinite",
						"reverseAddrNode(address)": "infinite",
						"sha3HexAddress(address)": "infinite"
					}
				},
				"methodIdentifiers": {
					"ens()": "3f15457f",
					"nns()": "c358133b",
					"resolve(address)": "55ea6c47"
				}
			},
			"storageLayout": {
				"storage": [],
				"types": null
			},
			"userdoc": {
				"kind": "user",
				"methods": {},
				"version": 1
			}
		}
	}
}